{
  "address": "0x290200649AA6958c1f585fCc85081752D1501F7E",
  "abi": [
    {
      "anonymous": false,
      "inputs": [
        {
          "indexed": true,
          "internalType": "address",
          "name": "owner",
          "type": "address"
        },
        {
          "indexed": true,
          "internalType": "address",
          "name": "approved",
          "type": "address"
        },
        {
          "indexed": true,
          "internalType": "uint256",
          "name": "tokenId",
          "type": "uint256"
        }
      ],
      "name": "Approval",
      "type": "event"
    },
    {
      "anonymous": false,
      "inputs": [
        {
          "indexed": true,
          "internalType": "address",
          "name": "owner",
          "type": "address"
        },
        {
          "indexed": true,
          "internalType": "address",
          "name": "operator",
          "type": "address"
        },
        {
          "indexed": false,
          "internalType": "bool",
          "name": "approved",
          "type": "bool"
        }
      ],
      "name": "ApprovalForAll",
      "type": "event"
    },
    {
      "anonymous": false,
      "inputs": [
        {
          "indexed": false,
          "internalType": "uint8",
          "name": "version",
          "type": "uint8"
        }
      ],
      "name": "Initialized",
      "type": "event"
    },
    {
      "anonymous": false,
      "inputs": [
        {
          "indexed": true,
          "internalType": "address",
          "name": "from",
          "type": "address"
        },
        {
          "indexed": true,
          "internalType": "address",
          "name": "to",
          "type": "address"
        },
        {
          "indexed": true,
          "internalType": "uint256",
          "name": "tokenId",
          "type": "uint256"
        }
      ],
      "name": "Transfer",
      "type": "event"
    },
    {
      "inputs": [],
      "name": "_tokenIdCounter",
      "outputs": [
        {
          "internalType": "uint256",
          "name": "_value",
          "type": "uint256"
        }
      ],
      "stateMutability": "view",
      "type": "function"
    },
    {
      "inputs": [
        {
          "internalType": "address",
          "name": "receiver",
          "type": "address"
        },
        {
          "internalType": "uint256",
          "name": "mintNum",
          "type": "uint256"
        }
      ],
      "name": "adminMint",
      "outputs": [],
      "stateMutability": "nonpayable",
      "type": "function"
    },
    {
      "inputs": [
        {
          "internalType": "address",
          "name": "to",
          "type": "address"
        },
        {
          "internalType": "uint256",
          "name": "tokenId",
          "type": "uint256"
        }
      ],
      "name": "approve",
      "outputs": [],
      "stateMutability": "nonpayable",
      "type": "function"
    },
    {
      "inputs": [],
      "name": "assetLimit",
      "outputs": [
        {
          "internalType": "uint256",
          "name": "",
          "type": "uint256"
        }
      ],
      "stateMutability": "view",
      "type": "function"
    },
    {
      "inputs": [
        {
          "internalType": "address",
          "name": "owner",
          "type": "address"
        }
      ],
      "name": "balanceOf",
      "outputs": [
        {
          "internalType": "uint256",
          "name": "",
          "type": "uint256"
        }
      ],
      "stateMutability": "view",
      "type": "function"
    },
    {
      "inputs": [],
      "name": "baseURIextended",
      "outputs": [
        {
          "internalType": "string",
          "name": "",
          "type": "string"
        }
      ],
      "stateMutability": "view",
      "type": "function"
    },
    {
      "inputs": [
        {
          "internalType": "uint256",
          "name": "tokenId",
          "type": "uint256"
        }
      ],
      "name": "getApproved",
      "outputs": [
        {
          "internalType": "address",
          "name": "",
          "type": "address"
        }
      ],
      "stateMutability": "view",
      "type": "function"
    },
    {
      "inputs": [
        {
          "internalType": "string",
          "name": "name_",
          "type": "string"
        },
        {
          "internalType": "string",
          "name": "symbol_",
          "type": "string"
        },
        {
          "internalType": "uint256",
          "name": "assetLimit_",
          "type": "uint256"
        }
      ],
      "name": "initialize",
      "outputs": [],
      "stateMutability": "nonpayable",
      "type": "function"
    },
    {
      "inputs": [
        {
          "internalType": "address",
          "name": "owner",
          "type": "address"
        },
        {
          "internalType": "address",
          "name": "operator",
          "type": "address"
        }
      ],
      "name": "isApprovedForAll",
      "outputs": [
        {
          "internalType": "bool",
          "name": "",
          "type": "bool"
        }
      ],
      "stateMutability": "view",
      "type": "function"
    },
    {
      "inputs": [
        {
          "internalType": "address",
          "name": "",
          "type": "address"
        }
      ],
      "name": "isMinted",
      "outputs": [
        {
          "internalType": "bool",
          "name": "",
          "type": "bool"
        }
      ],
      "stateMutability": "view",
      "type": "function"
    },
    {
      "inputs": [],
      "name": "isTransferBlocked",
      "outputs": [
        {
          "internalType": "bool",
          "name": "",
          "type": "bool"
        }
      ],
      "stateMutability": "view",
      "type": "function"
    },
    {
      "inputs": [
        {
          "internalType": "address",
          "name": "",
          "type": "address"
        }
      ],
      "name": "isWhiteListed",
      "outputs": [
        {
          "internalType": "bool",
          "name": "",
          "type": "bool"
        }
      ],
      "stateMutability": "view",
      "type": "function"
    },
    {
      "inputs": [],
      "name": "masterAdmin",
      "outputs": [
        {
          "internalType": "address",
          "name": "",
          "type": "address"
        }
      ],
      "stateMutability": "view",
      "type": "function"
    },
    {
      "inputs": [],
      "name": "name",
      "outputs": [
        {
          "internalType": "string",
          "name": "",
          "type": "string"
        }
      ],
      "stateMutability": "view",
      "type": "function"
    },
    {
      "inputs": [
        {
          "internalType": "uint256",
          "name": "tokenId",
          "type": "uint256"
        }
      ],
      "name": "ownerOf",
      "outputs": [
        {
          "internalType": "address",
          "name": "",
          "type": "address"
        }
      ],
      "stateMutability": "view",
      "type": "function"
    },
    {
      "inputs": [
        {
          "internalType": "address",
          "name": "from",
          "type": "address"
        },
        {
          "internalType": "address",
          "name": "to",
          "type": "address"
        },
        {
          "internalType": "uint256",
          "name": "tokenId",
          "type": "uint256"
        }
      ],
      "name": "safeTransferFrom",
      "outputs": [],
      "stateMutability": "nonpayable",
      "type": "function"
    },
    {
      "inputs": [
        {
          "internalType": "address",
          "name": "from",
          "type": "address"
        },
        {
          "internalType": "address",
          "name": "to",
          "type": "address"
        },
        {
          "internalType": "uint256",
          "name": "tokenId",
          "type": "uint256"
        },
        {
          "internalType": "bytes",
          "name": "data",
          "type": "bytes"
        }
      ],
      "name": "safeTransferFrom",
      "outputs": [],
      "stateMutability": "nonpayable",
      "type": "function"
    },
    {
      "inputs": [
        {
          "internalType": "address",
          "name": "operator",
          "type": "address"
        },
        {
          "internalType": "bool",
          "name": "approved",
          "type": "bool"
        }
      ],
      "name": "setApprovalForAll",
      "outputs": [],
      "stateMutability": "nonpayable",
      "type": "function"
    },
    {
      "inputs": [
        {
          "internalType": "uint256",
          "name": "assetLimit_",
          "type": "uint256"
        }
      ],
      "name": "setAssetLimit",
      "outputs": [],
      "stateMutability": "nonpayable",
      "type": "function"
    },
    {
      "inputs": [
        {
          "internalType": "string",
          "name": "baseURI_",
          "type": "string"
        }
      ],
      "name": "setBaseURI",
      "outputs": [],
      "stateMutability": "nonpayable",
      "type": "function"
    },
    {
      "inputs": [],
      "name": "setInitialReEntrancyValue",
      "outputs": [],
      "stateMutability": "nonpayable",
      "type": "function"
    },
    {
      "inputs": [
        {
          "internalType": "address",
          "name": "user",
          "type": "address"
        },
        {
          "internalType": "bool",
          "name": "value",
          "type": "bool"
        }
      ],
      "name": "setIsMinted",
      "outputs": [],
      "stateMutability": "nonpayable",
      "type": "function"
    },
    {
      "inputs": [
        {
          "internalType": "address",
          "name": "masterAdmin_",
          "type": "address"
        }
      ],
      "name": "setMasterAdmin",
      "outputs": [],
      "stateMutability": "nonpayable",
      "type": "function"
    },
    {
      "inputs": [
        {
          "internalType": "bool",
          "name": "isTransferBlocked_",
          "type": "bool"
        }
      ],
      "name": "setTransferBlock",
      "outputs": [],
      "stateMutability": "nonpayable",
      "type": "function"
    },
    {
      "inputs": [
        {
          "internalType": "address",
          "name": "user",
          "type": "address"
        }
      ],
      "name": "setWhiteList",
      "outputs": [],
      "stateMutability": "nonpayable",
      "type": "function"
    },
    {
      "inputs": [
        {
          "internalType": "address",
          "name": "receiver",
          "type": "address"
        }
      ],
      "name": "singleMint",
      "outputs": [],
      "stateMutability": "nonpayable",
      "type": "function"
    },
    {
      "inputs": [
        {
          "internalType": "bytes4",
          "name": "interfaceId",
          "type": "bytes4"
        }
      ],
      "name": "supportsInterface",
      "outputs": [
        {
          "internalType": "bool",
          "name": "",
          "type": "bool"
        }
      ],
      "stateMutability": "view",
      "type": "function"
    },
    {
      "inputs": [],
      "name": "symbol",
      "outputs": [
        {
          "internalType": "string",
          "name": "",
          "type": "string"
        }
      ],
      "stateMutability": "view",
      "type": "function"
    },
    {
      "inputs": [
        {
          "internalType": "uint256",
          "name": "index",
          "type": "uint256"
        }
      ],
      "name": "tokenByIndex",
      "outputs": [
        {
          "internalType": "uint256",
          "name": "",
          "type": "uint256"
        }
      ],
      "stateMutability": "view",
      "type": "function"
    },
    {
      "inputs": [
        {
          "internalType": "address",
          "name": "owner",
          "type": "address"
        },
        {
          "internalType": "uint256",
          "name": "index",
          "type": "uint256"
        }
      ],
      "name": "tokenOfOwnerByIndex",
      "outputs": [
        {
          "internalType": "uint256",
          "name": "",
          "type": "uint256"
        }
      ],
      "stateMutability": "view",
      "type": "function"
    },
    {
      "inputs": [
        {
          "internalType": "uint256",
          "name": "tokenId",
          "type": "uint256"
        }
      ],
      "name": "tokenURI",
      "outputs": [
        {
          "internalType": "string",
          "name": "",
          "type": "string"
        }
      ],
      "stateMutability": "view",
      "type": "function"
    },
    {
      "inputs": [],
      "name": "totalSupply",
      "outputs": [
        {
          "internalType": "uint256",
          "name": "",
          "type": "uint256"
        }
      ],
      "stateMutability": "view",
      "type": "function"
    },
    {
      "inputs": [
        {
          "internalType": "address",
          "name": "from",
          "type": "address"
        },
        {
          "internalType": "address",
          "name": "to",
          "type": "address"
        },
        {
          "internalType": "uint256",
          "name": "tokenId",
          "type": "uint256"
        }
      ],
      "name": "transferFrom",
      "outputs": [],
      "stateMutability": "nonpayable",
      "type": "function"
    },
    {
      "inputs": [],
      "name": "unlocked",
      "outputs": [
        {
          "internalType": "uint256",
          "name": "",
          "type": "uint256"
        }
      ],
      "stateMutability": "view",
      "type": "function"
    },
    {
      "inputs": [],
      "name": "uriSet",
      "outputs": [
        {
          "internalType": "bool",
          "name": "",
          "type": "bool"
        }
      ],
      "stateMutability": "view",
      "type": "function"
    },
    {
      "inputs": [
        {
          "internalType": "uint256",
          "name": "",
          "type": "uint256"
        }
      ],
      "name": "whiteList",
      "outputs": [
        {
          "internalType": "address",
          "name": "",
          "type": "address"
        }
      ],
      "stateMutability": "view",
      "type": "function"
    }
  ],
  "transactionHash": "0x2af0b8048dfefd1da638010db89bb2965a6e0a26b25d60e1a1bb8944b137bab4",
  "args": [],
  "numDeployments": 5,
  "solcInputHash": "bab7a82d5dc898e483e98023f03b7cf4",
  "bytecode": "0x608060405234801561001057600080fd5b50612708806100206000396000f3fe608060405234801561001057600080fd5b506004361061021c5760003560e01c80636352211e11610125578063b119490e116100ad578063c87b56dd1161007c578063c87b56dd14610469578063e58306f91461047c578063e985e9c51461048f578063ede6346d146104cb578063f9f2a7ce146104de57600080fd5b8063b119490e14610428578063b88d4fde1461043b578063bc639b511461044e578063c395de011461046157600080fd5b806384c4bd4b116100f457806384c4bd4b146103dd57806395d89b41146103e75780639622cd62146103ef578063a22cb46514610402578063afd629361461041557600080fd5b80636352211e1461038b5780636a5e26501461039e5780636f9170f6146103a757806370a08231146103ca57600080fd5b80632a68f64e116101a8578063435371531161017757806343537153146103325780634f6ccce71461034557806350a3a7281461035857806355f804b3146103655780635c475d421461037857600080fd5b80632a68f64e146102e15780632f745c59146102f957806339e899ee1461030c57806342842e0e1461031f57600080fd5b80630d449db0116101ef5780630d449db01461029e5780630e1e2587146102a657806318160ddd146102b357806322da98e7146102c557806323b872dd146102ce57600080fd5b806301ffc9a71461022157806306fdde0314610249578063081812fc1461025e578063095ea7b314610289575b600080fd5b61023461022f366004612039565b610501565b60405190151581526020015b60405180910390f35b610251610512565b60405161024091906120ae565b61027161026c3660046120c1565b6105a4565b6040516001600160a01b039091168152602001610240565b61029c6102973660046120f6565b6105cb565b005b6102516106e6565b60cb546102349060ff1681565b6099545b604051908152602001610240565b6102b760cc5481565b61029c6102dc366004612120565b610774565b60cb546102719061010090046001600160a01b031681565b6102b76103073660046120f6565b6107c7565b61029c61031a36600461215c565b61085d565b61029c61032d366004612120565b61095c565b61029c610340366004612187565b6109a9565b6102b76103533660046120c1565b6109eb565b60ce546102349060ff1681565b61029c61037336600461224e565b610a7e565b6102716103863660046120c1565b610ad1565b6102716103993660046120c1565b610afb565b6102b760d05481565b6102346103b536600461215c565b60ca6020526000908152604090205460ff1681565b6102b76103d836600461215c565b610b5b565b60cf546102b79081565b610251610be1565b61029c6103fd366004612283565b610bf0565b61029c610410366004612283565b610c4a565b61029c61042336600461215c565b610c55565b61029c6104363660046122b6565b611075565b61029c610449366004612323565b611211565b61029c61045c3660046120c1565b611266565b61029c61129a565b6102516104773660046120c1565b6112d0565b61029c61048a3660046120f6565b611337565b61023461049d36600461239f565b6001600160a01b039182166000908152606a6020908152604080832093909416825291909152205460ff1690565b61029c6104d936600461215c565b61138c565b6102346104ec36600461215c565b60d16020526000908152604090205460ff1681565b600061050c826113e3565b92915050565b606060658054610521906123c9565b80601f016020809104026020016040519081016040528092919081815260200182805461054d906123c9565b801561059a5780601f1061056f5761010080835404028352916020019161059a565b820191906000526020600020905b81548152906001019060200180831161057d57829003601f168201915b5050505050905090565b60006105af82611408565b506000908152606960205260409020546001600160a01b031690565b60006105d682610afb565b9050806001600160a01b0316836001600160a01b031614156106495760405162461bcd60e51b815260206004820152602160248201527f4552433732313a20617070726f76616c20746f2063757272656e74206f776e656044820152603960f91b60648201526084015b60405180910390fd5b336001600160a01b03821614806106655750610665813361049d565b6106d75760405162461bcd60e51b815260206004820152603e60248201527f4552433732313a20617070726f76652063616c6c6572206973206e6f7420746f60448201527f6b656e206f776e6572206e6f7220617070726f76656420666f7220616c6c00006064820152608401610640565b6106e1838361146a565b505050565b60cd80546106f3906123c9565b80601f016020809104026020016040519081016040528092919081815260200182805461071f906123c9565b801561076c5780601f106107415761010080835404028352916020019161076c565b820191906000526020600020905b81548152906001019060200180831161074f57829003601f168201915b505050505081565b60cb54839060ff16158061079a575060cb546001600160a01b0382811661010090920416145b6107b65760405162461bcd60e51b815260040161064090612404565b6107c18484846114d8565b50505050565b60006107d283610b5b565b82106108345760405162461bcd60e51b815260206004820152602b60248201527f455243373231456e756d657261626c653a206f776e657220696e646578206f7560448201526a74206f6620626f756e647360a81b6064820152608401610640565b506001600160a01b03919091166000908152609760209081526040808320938352929052205490565b60cb5461010090046001600160a01b0316331461088c5760405162461bcd60e51b81526004016106409061243b565b6001600160a01b038116600090815260ca602052604090205460ff16156108f55760405162461bcd60e51b815260206004820152601d60248201527f436f6e74726163744572726f723a20414c52454144595f4c49535445440000006044820152606401610640565b60c9805460018181019092557f66be4f155c5ef2ebd3772b228f2f00681e4ed5826cdb3b1943cc11ad15ad1d280180546001600160a01b039093166001600160a01b031990931683179055600091825260ca6020526040909120805460ff19169091179055565b60cb54839060ff161580610982575060cb546001600160a01b0382811661010090920416145b61099e5760405162461bcd60e51b815260040161064090612404565b6107c1848484611509565b60cb5461010090046001600160a01b031633146109d85760405162461bcd60e51b81526004016106409061243b565b60cb805460ff1916911515919091179055565b60006109f660995490565b8210610a595760405162461bcd60e51b815260206004820152602c60248201527f455243373231456e756d657261626c653a20676c6f62616c20696e646578206f60448201526b7574206f6620626f756e647360a01b6064820152608401610640565b60998281548110610a6c57610a6c612484565b90600052602060002001549050919050565b60cb5461010090046001600160a01b03163314610aad5760405162461bcd60e51b81526004016106409061243b565b60ce805460ff191660011790558051610acd9060cd906020840190611f8a565b5050565b60c98181548110610ae157600080fd5b6000918252602090912001546001600160a01b0316905081565b6000818152606760205260408120546001600160a01b03168061050c5760405162461bcd60e51b8152602060048201526018602482015277115490cdcc8c4e881a5b9d985b1a59081d1bdad95b88125160421b6044820152606401610640565b60006001600160a01b038216610bc55760405162461bcd60e51b815260206004820152602960248201527f4552433732313a2061646472657373207a65726f206973206e6f7420612076616044820152683634b21037bbb732b960b91b6064820152608401610640565b506001600160a01b031660009081526068602052604090205490565b606060668054610521906123c9565b60cb5461010090046001600160a01b03163314610c1f5760405162461bcd60e51b81526004016106409061243b565b6001600160a01b0391909116600090815260d160205260409020805460ff1916911515919091179055565b610acd338383611524565b60ce54819060ff161515600114610cba5760405162461bcd60e51b815260206004820152602360248201527f436f6e74726163744572726f723a20494e56414c49445f424153455f5552495f60448201526214d15560ea1b6064820152608401610640565b33600090815260ca602052604090205460ff161515600114610d1e5760405162461bcd60e51b815260206004820152601c60248201527f436f6e74726163744572726f723a204143434553535f44454e494544000000006044820152606401610640565b60cb5461010090046001600160a01b0316331480610d445750336001600160a01b038216145b610d9e5760405162461bcd60e51b815260206004820152602560248201527f436f6e74726163744572726f723a2043414c4c45525f49535f4e4f545f52454360448201526422a4ab22a960d91b6064820152608401610640565b60cc54609954610daf9060016124b0565b1115610dfd5760405162461bcd60e51b815260206004820152601a60248201527f436f6e74726163744572726f723a2041535345545f4c494d49540000000000006044820152606401610640565b6001600160a01b038116600090815260d1602052604090205460ff1615610e665760405162461bcd60e51b815260206004820152601860248201527f436f6e74726163744572726f723a2049535f4d494e54454400000000000000006044820152606401610640565b60d054600114610e9e5760405162461bcd60e51b815260206004820152600360248201526204531360ec1b6044820152606401610640565b600060d055610eac826115f3565b6001600160a01b03828116600090815260d1602052604090208054600160ff1990911617905560cb54610100900416331461106c57600060c9805480602002602001604051908101604052809291908181526020018280548015610f3957602002820191906000526020600020905b81546001600160a01b03168152600190910190602001808311610f1b575b505083519394506000925050505b8181101561104857846001600160a01b031660c98281548110610f6c57610f6c612484565b6000918252602090912001546001600160a01b031614156110365760c9610f946001846124c8565b81548110610fa457610fa4612484565b60009182526020909120015460c980546001600160a01b039092169183908110610fd057610fd0612484565b9060005260206000200160006101000a8154816001600160a01b0302191690836001600160a01b0316021790555060c980548061100f5761100f6124df565b600082815260209020810160001990810180546001600160a01b0319169055019055611048565b6110416001826124b0565b9050610f47565b5050506001600160a01b038216600090815260ca60205260409020805460ff191690555b5050600160d055565b600054610100900460ff16158080156110955750600054600160ff909116105b806110af5750303b1580156110af575060005460ff166001145b6111125760405162461bcd60e51b815260206004820152602e60248201527f496e697469616c697a61626c653a20636f6e747261637420697320616c72656160448201526d191e481a5b9a5d1a585b1a5e995960921b6064820152608401610640565b6000805460ff191660011790558015611135576000805461ff0019166101001790555b61113f8484611630565b60cb8054610100600160a81b03191633610100810291909117825560c9805460018181019092557f66be4f155c5ef2ebd3772b228f2f00681e4ed5826cdb3b1943cc11ad15ad1d280180546001600160a01b03191683179055600091825260ca6020526040909120805460ff19908116909217905560cc84905560ce805482169055815416905580156107c1576000805461ff0019169055604051600181527f7f26b83ff96e1f2b6a682f133852f6798a09c465da95921460cefb38474024989060200160405180910390a150505050565b60cb54849060ff161580611237575060cb546001600160a01b0382811661010090920416145b6112535760405162461bcd60e51b815260040161064090612404565b61125f85858585611661565b5050505050565b60cb5461010090046001600160a01b031633146112955760405162461bcd60e51b81526004016106409061243b565b60cc55565b60cb5461010090046001600160a01b031633146112c95760405162461bcd60e51b81526004016106409061243b565b600160d055565b60606112db82611408565b60006112e5611693565b905060008151116113055760405180602001604052806000815250611330565b8061130f846116a2565b6040516020016113209291906124f5565b6040516020818303038152906040525b9392505050565b60cb5461010090046001600160a01b031633146113665760405162461bcd60e51b81526004016106409061243b565b60005b818110156106e15761137a836115f3565b8061138481612534565b915050611369565b60cb5461010090046001600160a01b031633146113bb5760405162461bcd60e51b81526004016106409061243b565b60cb80546001600160a01b0390921661010002610100600160a81b0319909216919091179055565b60006001600160e01b0319821663780e9d6360e01b148061050c575061050c826117a8565b6000818152606760205260409020546001600160a01b03166114675760405162461bcd60e51b8152602060048201526018602482015277115490cdcc8c4e881a5b9d985b1a59081d1bdad95b88125160421b6044820152606401610640565b50565b600081815260696020526040902080546001600160a01b0319166001600160a01b038416908117909155819061149f82610afb565b6001600160a01b03167f8c5be1e5ebec7d5bd14f71427d1e84f3dd0314c0f7b2291e5b200ac8c7c3b92560405160405180910390a45050565b6114e233826117f8565b6114fe5760405162461bcd60e51b81526004016106409061254f565b6106e1838383611876565b6106e183838360405180602001604052806000815250611211565b816001600160a01b0316836001600160a01b031614156115865760405162461bcd60e51b815260206004820152601960248201527f4552433732313a20617070726f766520746f2063616c6c6572000000000000006044820152606401610640565b6001600160a01b038381166000818152606a6020908152604080832094871680845294825291829020805460ff191686151590811790915591519182527f17307eab39ab6107e8899845ad3d59bd9653f200f220920489ca2b5937696c31910160405180910390a3505050565b60006115fe60cf5490565b9050806116185761161360cf80546001019055565b5060cf545b6116228282611a1d565b610acd60cf80546001019055565b600054610100900460ff166116575760405162461bcd60e51b81526004016106409061259d565b610acd8282611a37565b61166b33836117f8565b6116875760405162461bcd60e51b81526004016106409061254f565b6107c184848484611a85565b606060cd8054610521906123c9565b6060816116c65750506040805180820190915260018152600360fc1b602082015290565b8160005b81156116f057806116da81612534565b91506116e99050600a836125fe565b91506116ca565b60008167ffffffffffffffff81111561170b5761170b6121a2565b6040519080825280601f01601f191660200182016040528015611735576020820181803683370190505b5090505b84156117a05761174a6001836124c8565b9150611757600a86612612565b6117629060306124b0565b60f81b81838151811061177757611777612484565b60200101906001600160f81b031916908160001a905350611799600a866125fe565b9450611739565b949350505050565b60006001600160e01b031982166380ac58cd60e01b14806117d957506001600160e01b03198216635b5e139f60e01b145b8061050c57506301ffc9a760e01b6001600160e01b031983161461050c565b60008061180483610afb565b9050806001600160a01b0316846001600160a01b0316148061184b57506001600160a01b038082166000908152606a602090815260408083209388168352929052205460ff165b806117a05750836001600160a01b0316611864846105a4565b6001600160a01b031614949350505050565b826001600160a01b031661188982610afb565b6001600160a01b0316146118ed5760405162461bcd60e51b815260206004820152602560248201527f4552433732313a207472616e736665722066726f6d20696e636f72726563742060448201526437bbb732b960d91b6064820152608401610640565b6001600160a01b03821661194f5760405162461bcd60e51b8152602060048201526024808201527f4552433732313a207472616e7366657220746f20746865207a65726f206164646044820152637265737360e01b6064820152608401610640565b61195a838383611ab8565b61196560008261146a565b6001600160a01b038316600090815260686020526040812080546001929061198e9084906124c8565b90915550506001600160a01b03821660009081526068602052604081208054600192906119bc9084906124b0565b909155505060008181526067602052604080822080546001600160a01b0319166001600160a01b0386811691821790925591518493918716917fddf252ad1be2c89b69c2b068fc378daa952ba7f163c4a11628f55a4df523b3ef91a4505050565b610acd828260405180602001604052806000815250611ac3565b600054610100900460ff16611a5e5760405162461bcd60e51b81526004016106409061259d565b8151611a71906065906020850190611f8a565b5080516106e1906066906020840190611f8a565b611a90848484611876565b611a9c84848484611af6565b6107c15760405162461bcd60e51b815260040161064090612626565b6106e1838383611bf4565b611acd8383611cac565b611ada6000848484611af6565b6106e15760405162461bcd60e51b815260040161064090612626565b60006001600160a01b0384163b15611be957604051630a85bd0160e11b81526001600160a01b0385169063150b7a0290611b3a903390899088908890600401612678565b6020604051808303816000875af1925050508015611b75575060408051601f3d908101601f19168201909252611b72918101906126b5565b60015b611bcf573d808015611ba3576040519150601f19603f3d011682016040523d82523d6000602084013e611ba8565b606091505b508051611bc75760405162461bcd60e51b815260040161064090612626565b805181602001fd5b6001600160e01b031916630a85bd0160e11b1490506117a0565b506001949350505050565b6001600160a01b038316611c4f57611c4a81609980546000838152609a60205260408120829055600182018355919091527f72a152ddfb8e864297c917af52ea6c1c68aead0fee1a62673fcc7e0c94979d000155565b611c72565b816001600160a01b0316836001600160a01b031614611c7257611c728382611dfa565b6001600160a01b038216611c89576106e181611e97565b826001600160a01b0316826001600160a01b0316146106e1576106e18282611f46565b6001600160a01b038216611d025760405162461bcd60e51b815260206004820181905260248201527f4552433732313a206d696e7420746f20746865207a65726f20616464726573736044820152606401610640565b6000818152606760205260409020546001600160a01b031615611d675760405162461bcd60e51b815260206004820152601c60248201527f4552433732313a20746f6b656e20616c7265616479206d696e746564000000006044820152606401610640565b611d7360008383611ab8565b6001600160a01b0382166000908152606860205260408120805460019290611d9c9084906124b0565b909155505060008181526067602052604080822080546001600160a01b0319166001600160a01b03861690811790915590518392907fddf252ad1be2c89b69c2b068fc378daa952ba7f163c4a11628f55a4df523b3ef908290a45050565b60006001611e0784610b5b565b611e1191906124c8565b600083815260986020526040902054909150808214611e64576001600160a01b03841660009081526097602090815260408083208584528252808320548484528184208190558352609890915290208190555b5060009182526098602090815260408084208490556001600160a01b039094168352609781528383209183525290812055565b609954600090611ea9906001906124c8565b6000838152609a602052604081205460998054939450909284908110611ed157611ed1612484565b906000526020600020015490508060998381548110611ef257611ef2612484565b6000918252602080832090910192909255828152609a90915260408082208490558582528120556099805480611f2a57611f2a6124df565b6001900381819060005260206000200160009055905550505050565b6000611f5183610b5b565b6001600160a01b039093166000908152609760209081526040808320868452825280832085905593825260989052919091209190915550565b828054611f96906123c9565b90600052602060002090601f016020900481019282611fb85760008555611ffe565b82601f10611fd157805160ff1916838001178555611ffe565b82800160010185558215611ffe579182015b82811115611ffe578251825591602001919060010190611fe3565b5061200a92915061200e565b5090565b5b8082111561200a576000815560010161200f565b6001600160e01b03198116811461146757600080fd5b60006020828403121561204b57600080fd5b813561133081612023565b60005b83811015612071578181015183820152602001612059565b838111156107c15750506000910152565b6000815180845261209a816020860160208601612056565b601f01601f19169290920160200192915050565b6020815260006113306020830184612082565b6000602082840312156120d357600080fd5b5035919050565b80356001600160a01b03811681146120f157600080fd5b919050565b6000806040838503121561210957600080fd5b612112836120da565b946020939093013593505050565b60008060006060848603121561213557600080fd5b61213e846120da565b925061214c602085016120da565b9150604084013590509250925092565b60006020828403121561216e57600080fd5b611330826120da565b803580151581146120f157600080fd5b60006020828403121561219957600080fd5b61133082612177565b634e487b7160e01b600052604160045260246000fd5b600067ffffffffffffffff808411156121d3576121d36121a2565b604051601f8501601f19908116603f011681019082821181831017156121fb576121fb6121a2565b8160405280935085815286868601111561221457600080fd5b858560208301376000602087830101525050509392505050565b600082601f83011261223f57600080fd5b611330838335602085016121b8565b60006020828403121561226057600080fd5b813567ffffffffffffffff81111561227757600080fd5b6117a08482850161222e565b6000806040838503121561229657600080fd5b61229f836120da565b91506122ad60208401612177565b90509250929050565b6000806000606084860312156122cb57600080fd5b833567ffffffffffffffff808211156122e357600080fd5b6122ef8783880161222e565b9450602086013591508082111561230557600080fd5b506123128682870161222e565b925050604084013590509250925092565b6000806000806080858703121561233957600080fd5b612342856120da565b9350612350602086016120da565b925060408501359150606085013567ffffffffffffffff81111561237357600080fd5b8501601f8101871361238457600080fd5b612393878235602084016121b8565b91505092959194509250565b600080604083850312156123b257600080fd5b6123bb836120da565b91506122ad602084016120da565b600181811c908216806123dd57607f821691505b602082108114156123fe57634e487b7160e01b600052602260045260246000fd5b50919050565b6020808252601f908201527f436f6e74726163744572726f723a205452414e534645525f424c4f434b454400604082015260600190565b60208082526029908201527f436f6e74726163744572726f723a2043414c4c45525f4d5553545f42455f4d4160408201526829aa22a920a226a4a760b91b606082015260800190565b634e487b7160e01b600052603260045260246000fd5b634e487b7160e01b600052601160045260246000fd5b600082198211156124c3576124c361249a565b500190565b6000828210156124da576124da61249a565b500390565b634e487b7160e01b600052603160045260246000fd5b60008351612507818460208801612056565b83519083019061251b818360208801612056565b64173539b7b760d91b9101908152600501949350505050565b60006000198214156125485761254861249a565b5060010190565b6020808252602e908201527f4552433732313a2063616c6c6572206973206e6f7420746f6b656e206f776e6560408201526d1c881b9bdc88185c1c1c9bdd995960921b606082015260800190565b6020808252602b908201527f496e697469616c697a61626c653a20636f6e7472616374206973206e6f74206960408201526a6e697469616c697a696e6760a81b606082015260800190565b634e487b7160e01b600052601260045260246000fd5b60008261260d5761260d6125e8565b500490565b600082612621576126216125e8565b500690565b60208082526032908201527f4552433732313a207472616e7366657220746f206e6f6e20455243373231526560408201527131b2b4bb32b91034b6b83632b6b2b73a32b960711b606082015260800190565b6001600160a01b03858116825284166020820152604081018390526080606082018190526000906126ab90830184612082565b9695505050505050565b6000602082840312156126c757600080fd5b81516113308161202356fea264697066735822122046b9e45d5c02461024999f42372c549ef8e4a2a944ef634939acfea86fb5d4ee64736f6c634300080b0033",
  "devdoc": {
    "kind": "dev",
    "methods": {
      "adminMint(address,uint256)": {
        "details": "preMintChecker  ,    (,    SingleMint  .)",
        "params": {
          "mintNum": ": receive  ",
          "receiver": ":  NFT  "
        }
      },
      "approve(address,uint256)": {
        "details": "See {IERC721-approve}."
      },
      "balanceOf(address)": {
        "details": "See {IERC721-balanceOf}."
      },
      "getApproved(uint256)": {
        "details": "See {IERC721-getApproved}."
      },
      "isApprovedForAll(address,address)": {
        "details": "See {IERC721-isApprovedForAll}."
      },
      "name()": {
        "details": "See {IERC721Metadata-name}."
      },
      "ownerOf(uint256)": {
        "details": "See {IERC721-ownerOf}."
      },
      "safeTransferFrom(address,address,uint256)": {
        "details": "See {IERC721-safeTransferFrom}."
      },
      "safeTransferFrom(address,address,uint256,bytes)": {
        "details": "See {IERC721-safeTransferFrom}."
      },
      "setApprovalForAll(address,bool)": {
        "details": "See {IERC721-setApprovalForAll}."
      },
      "singleMint(address)": {
        "details": "singleMint  Minting ,        whiteList   .",
        "params": {
          "receiver": ":  NFT  "
        }
      },
      "supportsInterface(bytes4)": {
        "details": "See {IERC165-supportsInterface}."
      },
      "symbol()": {
        "details": "See {IERC721Metadata-symbol}."
      },
      "tokenByIndex(uint256)": {
        "details": "See {IERC721Enumerable-tokenByIndex}."
      },
      "tokenOfOwnerByIndex(address,uint256)": {
        "details": "See {IERC721Enumerable-tokenOfOwnerByIndex}."
      },
      "tokenURI(uint256)": {
        "details": "See {IERC721Metadata-tokenURI}."
      },
      "totalSupply()": {
        "details": "See {IERC721Enumerable-totalSupply}."
      },
      "transferFrom(address,address,uint256)": {
        "details": "See {IERC721-transferFrom}."
      }
    },
    "version": 1
  },
  "userdoc": {
    "kind": "user",
    "methods": {
      "adminMint(address,uint256)": {
        "notice": "   "
      },
      "singleMint(address)": {
        "notice": "   "
      }
    },
    "version": 1
  },
  "storageLayout": {
    "storage": [
      {
        "astId": 6,
        "contract": "src/MyLittleTiger.sol:MyLittleTiger",
        "label": "_initialized",
        "offset": 0,
        "slot": "0",
        "type": "t_uint8"
      },
      {
        "astId": 9,
        "contract": "src/MyLittleTiger.sol:MyLittleTiger",
        "label": "_initializing",
        "offset": 1,
        "slot": "0",
        "type": "t_bool"
      },
      {
        "astId": 1876,
        "contract": "src/MyLittleTiger.sol:MyLittleTiger",
        "label": "__gap",
        "offset": 0,
        "slot": "1",
        "type": "t_array(t_uint256)50_storage"
      },
      {
        "astId": 2146,
        "contract": "src/MyLittleTiger.sol:MyLittleTiger",
        "label": "__gap",
        "offset": 0,
        "slot": "51",
        "type": "t_array(t_uint256)50_storage"
      },
      {
        "astId": 179,
        "contract": "src/MyLittleTiger.sol:MyLittleTiger",
        "label": "_name",
        "offset": 0,
        "slot": "101",
        "type": "t_string_storage"
      },
      {
        "astId": 181,
        "contract": "src/MyLittleTiger.sol:MyLittleTiger",
        "label": "_symbol",
        "offset": 0,
        "slot": "102",
        "type": "t_string_storage"
      },
      {
        "astId": 185,
        "contract": "src/MyLittleTiger.sol:MyLittleTiger",
        "label": "_owners",
        "offset": 0,
        "slot": "103",
        "type": "t_mapping(t_uint256,t_address)"
      },
      {
        "astId": 189,
        "contract": "src/MyLittleTiger.sol:MyLittleTiger",
        "label": "_balances",
        "offset": 0,
        "slot": "104",
        "type": "t_mapping(t_address,t_uint256)"
      },
      {
        "astId": 193,
        "contract": "src/MyLittleTiger.sol:MyLittleTiger",
        "label": "_tokenApprovals",
        "offset": 0,
        "slot": "105",
        "type": "t_mapping(t_uint256,t_address)"
      },
      {
        "astId": 199,
        "contract": "src/MyLittleTiger.sol:MyLittleTiger",
        "label": "_operatorApprovals",
        "offset": 0,
        "slot": "106",
        "type": "t_mapping(t_address,t_mapping(t_address,t_bool))"
      },
      {
        "astId": 1041,
        "contract": "src/MyLittleTiger.sol:MyLittleTiger",
        "label": "__gap",
        "offset": 0,
        "slot": "107",
        "type": "t_array(t_uint256)44_storage"
      },
      {
        "astId": 1206,
        "contract": "src/MyLittleTiger.sol:MyLittleTiger",
        "label": "_ownedTokens",
        "offset": 0,
        "slot": "151",
        "type": "t_mapping(t_address,t_mapping(t_uint256,t_uint256))"
      },
      {
        "astId": 1210,
        "contract": "src/MyLittleTiger.sol:MyLittleTiger",
        "label": "_ownedTokensIndex",
        "offset": 0,
        "slot": "152",
        "type": "t_mapping(t_uint256,t_uint256)"
      },
      {
        "astId": 1213,
        "contract": "src/MyLittleTiger.sol:MyLittleTiger",
        "label": "_allTokens",
        "offset": 0,
        "slot": "153",
        "type": "t_array(t_uint256)dyn_storage"
      },
      {
        "astId": 1217,
        "contract": "src/MyLittleTiger.sol:MyLittleTiger",
        "label": "_allTokensIndex",
        "offset": 0,
        "slot": "154",
        "type": "t_mapping(t_uint256,t_uint256)"
      },
      {
        "astId": 1533,
        "contract": "src/MyLittleTiger.sol:MyLittleTiger",
        "label": "__gap",
        "offset": 0,
        "slot": "155",
        "type": "t_array(t_uint256)46_storage"
      },
      {
        "astId": 2848,
        "contract": "src/MyLittleTiger.sol:MyLittleTiger",
        "label": "whiteList",
        "offset": 0,
        "slot": "201",
        "type": "t_array(t_address)dyn_storage"
      },
      {
        "astId": 2852,
        "contract": "src/MyLittleTiger.sol:MyLittleTiger",
        "label": "isWhiteListed",
        "offset": 0,
        "slot": "202",
        "type": "t_mapping(t_address,t_bool)"
      },
      {
        "astId": 2854,
        "contract": "src/MyLittleTiger.sol:MyLittleTiger",
        "label": "isTransferBlocked",
        "offset": 0,
        "slot": "203",
        "type": "t_bool"
      },
      {
        "astId": 2856,
        "contract": "src/MyLittleTiger.sol:MyLittleTiger",
        "label": "masterAdmin",
        "offset": 1,
        "slot": "203",
        "type": "t_address"
      },
      {
        "astId": 2858,
        "contract": "src/MyLittleTiger.sol:MyLittleTiger",
        "label": "assetLimit",
        "offset": 0,
        "slot": "204",
        "type": "t_uint256"
      },
      {
        "astId": 2860,
        "contract": "src/MyLittleTiger.sol:MyLittleTiger",
        "label": "baseURIextended",
        "offset": 0,
        "slot": "205",
        "type": "t_string_storage"
      },
      {
        "astId": 2862,
        "contract": "src/MyLittleTiger.sol:MyLittleTiger",
        "label": "uriSet",
        "offset": 0,
        "slot": "206",
        "type": "t_bool"
      },
      {
        "astId": 2865,
        "contract": "src/MyLittleTiger.sol:MyLittleTiger",
        "label": "_tokenIdCounter",
        "offset": 0,
        "slot": "207",
        "type": "t_struct(Counter)2165_storage"
      },
      {
        "astId": 2867,
        "contract": "src/MyLittleTiger.sol:MyLittleTiger",
        "label": "unlocked",
        "offset": 0,
        "slot": "208",
        "type": "t_uint256"
      },
      {
        "astId": 2871,
        "contract": "src/MyLittleTiger.sol:MyLittleTiger",
        "label": "isMinted",
        "offset": 0,
        "slot": "209",
        "type": "t_mapping(t_address,t_bool)"
      }
    ],
    "types": {
      "t_address": {
        "encoding": "inplace",
        "label": "address",
        "numberOfBytes": "20"
      },
      "t_array(t_address)dyn_storage": {
        "base": "t_address",
        "encoding": "dynamic_array",
        "label": "address[]",
        "numberOfBytes": "32"
      },
      "t_array(t_uint256)44_storage": {
        "base": "t_uint256",
        "encoding": "inplace",
        "label": "uint256[44]",
        "numberOfBytes": "1408"
      },
      "t_array(t_uint256)46_storage": {
        "base": "t_uint256",
        "encoding": "inplace",
        "label": "uint256[46]",
        "numberOfBytes": "1472"
      },
      "t_array(t_uint256)50_storage": {
        "base": "t_uint256",
        "encoding": "inplace",
        "label": "uint256[50]",
        "numberOfBytes": "1600"
      },
      "t_array(t_uint256)dyn_storage": {
        "base": "t_uint256",
        "encoding": "dynamic_array",
        "label": "uint256[]",
        "numberOfBytes": "32"
      },
      "t_bool": {
        "encoding": "inplace",
        "label": "bool",
        "numberOfBytes": "1"
      },
      "t_mapping(t_address,t_bool)": {
        "encoding": "mapping",
        "key": "t_address",
        "label": "mapping(address => bool)",
        "numberOfBytes": "32",
        "value": "t_bool"
      },
      "t_mapping(t_address,t_mapping(t_address,t_bool))": {
        "encoding": "mapping",
        "key": "t_address",
        "label": "mapping(address => mapping(address => bool))",
        "numberOfBytes": "32",
        "value": "t_mapping(t_address,t_bool)"
      },
      "t_mapping(t_address,t_mapping(t_uint256,t_uint256))": {
        "encoding": "mapping",
        "key": "t_address",
        "label": "mapping(address => mapping(uint256 => uint256))",
        "numberOfBytes": "32",
        "value": "t_mapping(t_uint256,t_uint256)"
      },
      "t_mapping(t_address,t_uint256)": {
        "encoding": "mapping",
        "key": "t_address",
        "label": "mapping(address => uint256)",
        "numberOfBytes": "32",
        "value": "t_uint256"
      },
      "t_mapping(t_uint256,t_address)": {
        "encoding": "mapping",
        "key": "t_uint256",
        "label": "mapping(uint256 => address)",
        "numberOfBytes": "32",
        "value": "t_address"
      },
      "t_mapping(t_uint256,t_uint256)": {
        "encoding": "mapping",
        "key": "t_uint256",
        "label": "mapping(uint256 => uint256)",
        "numberOfBytes": "32",
        "value": "t_uint256"
      },
      "t_string_storage": {
        "encoding": "bytes",
        "label": "string",
        "numberOfBytes": "32"
      },
      "t_struct(Counter)2165_storage": {
        "encoding": "inplace",
        "label": "struct Counters.Counter",
        "members": [
          {
            "astId": 2164,
            "contract": "src/MyLittleTiger.sol:MyLittleTiger",
            "label": "_value",
            "offset": 0,
            "slot": "0",
            "type": "t_uint256"
          }
        ],
        "numberOfBytes": "32"
      },
      "t_uint256": {
        "encoding": "inplace",
        "label": "uint256",
        "numberOfBytes": "32"
      },
      "t_uint8": {
        "encoding": "inplace",
        "label": "uint8",
        "numberOfBytes": "1"
      }
    }
  }
}