{
  "address": "0x8c7778287780eE31B5c02c8E48D7D5919C882bdD",
  "abi": [
    {
      "anonymous": false,
      "inputs": [
        {
          "indexed": true,
          "internalType": "address",
          "name": "owner",
          "type": "address"
        },
        {
          "indexed": true,
          "internalType": "address",
          "name": "approved",
          "type": "address"
        },
        {
          "indexed": true,
          "internalType": "uint256",
          "name": "tokenId",
          "type": "uint256"
        }
      ],
      "name": "Approval",
      "type": "event"
    },
    {
      "anonymous": false,
      "inputs": [
        {
          "indexed": true,
          "internalType": "address",
          "name": "owner",
          "type": "address"
        },
        {
          "indexed": true,
          "internalType": "address",
          "name": "operator",
          "type": "address"
        },
        {
          "indexed": false,
          "internalType": "bool",
          "name": "approved",
          "type": "bool"
        }
      ],
      "name": "ApprovalForAll",
      "type": "event"
    },
    {
      "anonymous": false,
      "inputs": [
        {
          "indexed": false,
          "internalType": "uint8",
          "name": "version",
          "type": "uint8"
        }
      ],
      "name": "Initialized",
      "type": "event"
    },
    {
      "anonymous": false,
      "inputs": [
        {
          "indexed": true,
          "internalType": "address",
          "name": "from",
          "type": "address"
        },
        {
          "indexed": true,
          "internalType": "address",
          "name": "to",
          "type": "address"
        },
        {
          "indexed": true,
          "internalType": "uint256",
          "name": "tokenId",
          "type": "uint256"
        }
      ],
      "name": "Transfer",
      "type": "event"
    },
    {
      "inputs": [],
      "name": "_tokenIdCounter",
      "outputs": [
        {
          "internalType": "uint256",
          "name": "_value",
          "type": "uint256"
        }
      ],
      "stateMutability": "view",
      "type": "function"
    },
    {
      "inputs": [
        {
          "internalType": "address",
          "name": "to",
          "type": "address"
        },
        {
          "internalType": "uint256",
          "name": "tokenId",
          "type": "uint256"
        }
      ],
      "name": "approve",
      "outputs": [],
      "stateMutability": "nonpayable",
      "type": "function"
    },
    {
      "inputs": [],
      "name": "assetLimit",
      "outputs": [
        {
          "internalType": "uint256",
          "name": "",
          "type": "uint256"
        }
      ],
      "stateMutability": "view",
      "type": "function"
    },
    {
      "inputs": [
        {
          "internalType": "address",
          "name": "owner",
          "type": "address"
        }
      ],
      "name": "balanceOf",
      "outputs": [
        {
          "internalType": "uint256",
          "name": "",
          "type": "uint256"
        }
      ],
      "stateMutability": "view",
      "type": "function"
    },
    {
      "inputs": [],
      "name": "baseURIextended",
      "outputs": [
        {
          "internalType": "string",
          "name": "",
          "type": "string"
        }
      ],
      "stateMutability": "view",
      "type": "function"
    },
    {
      "inputs": [
        {
          "internalType": "uint256",
          "name": "tokenId",
          "type": "uint256"
        }
      ],
      "name": "getApproved",
      "outputs": [
        {
          "internalType": "address",
          "name": "",
          "type": "address"
        }
      ],
      "stateMutability": "view",
      "type": "function"
    },
    {
      "inputs": [
        {
          "internalType": "string",
          "name": "name_",
          "type": "string"
        },
        {
          "internalType": "string",
          "name": "symbol_",
          "type": "string"
        },
        {
          "internalType": "string",
          "name": "baseURI_",
          "type": "string"
        },
        {
          "internalType": "uint256",
          "name": "assetLimit_",
          "type": "uint256"
        }
      ],
      "name": "initialize",
      "outputs": [],
      "stateMutability": "nonpayable",
      "type": "function"
    },
    {
      "inputs": [
        {
          "internalType": "address",
          "name": "owner",
          "type": "address"
        },
        {
          "internalType": "address",
          "name": "operator",
          "type": "address"
        }
      ],
      "name": "isApprovedForAll",
      "outputs": [
        {
          "internalType": "bool",
          "name": "",
          "type": "bool"
        }
      ],
      "stateMutability": "view",
      "type": "function"
    },
    {
      "inputs": [],
      "name": "masterAdmin",
      "outputs": [
        {
          "internalType": "address",
          "name": "",
          "type": "address"
        }
      ],
      "stateMutability": "view",
      "type": "function"
    },
    {
      "inputs": [
        {
          "internalType": "address",
          "name": "receiver",
          "type": "address"
        },
        {
          "internalType": "uint256",
          "name": "numAssets",
          "type": "uint256"
        }
      ],
      "name": "multipleMint",
      "outputs": [],
      "stateMutability": "nonpayable",
      "type": "function"
    },
    {
      "inputs": [],
      "name": "name",
      "outputs": [
        {
          "internalType": "string",
          "name": "",
          "type": "string"
        }
      ],
      "stateMutability": "view",
      "type": "function"
    },
    {
      "inputs": [
        {
          "internalType": "uint256",
          "name": "tokenId",
          "type": "uint256"
        }
      ],
      "name": "ownerOf",
      "outputs": [
        {
          "internalType": "address",
          "name": "",
          "type": "address"
        }
      ],
      "stateMutability": "view",
      "type": "function"
    },
    {
      "inputs": [
        {
          "internalType": "address",
          "name": "from",
          "type": "address"
        },
        {
          "internalType": "address",
          "name": "to",
          "type": "address"
        },
        {
          "internalType": "uint256",
          "name": "tokenId",
          "type": "uint256"
        }
      ],
      "name": "safeTransferFrom",
      "outputs": [],
      "stateMutability": "nonpayable",
      "type": "function"
    },
    {
      "inputs": [
        {
          "internalType": "address",
          "name": "from",
          "type": "address"
        },
        {
          "internalType": "address",
          "name": "to",
          "type": "address"
        },
        {
          "internalType": "uint256",
          "name": "tokenId",
          "type": "uint256"
        },
        {
          "internalType": "bytes",
          "name": "data",
          "type": "bytes"
        }
      ],
      "name": "safeTransferFrom",
      "outputs": [],
      "stateMutability": "nonpayable",
      "type": "function"
    },
    {
      "inputs": [
        {
          "internalType": "address",
          "name": "operator",
          "type": "address"
        },
        {
          "internalType": "bool",
          "name": "approved",
          "type": "bool"
        }
      ],
      "name": "setApprovalForAll",
      "outputs": [],
      "stateMutability": "nonpayable",
      "type": "function"
    },
    {
      "inputs": [
        {
          "internalType": "string",
          "name": "baseURI_",
          "type": "string"
        }
      ],
      "name": "setBaseURI",
      "outputs": [],
      "stateMutability": "nonpayable",
      "type": "function"
    },
    {
      "inputs": [
        {
          "internalType": "address",
          "name": "masterAdmin_",
          "type": "address"
        }
      ],
      "name": "setMasterAdmin",
      "outputs": [],
      "stateMutability": "nonpayable",
      "type": "function"
    },
    {
      "inputs": [
        {
          "internalType": "address",
          "name": "receiver",
          "type": "address"
        }
      ],
      "name": "singleMint",
      "outputs": [],
      "stateMutability": "nonpayable",
      "type": "function"
    },
    {
      "inputs": [
        {
          "internalType": "bytes4",
          "name": "interfaceId",
          "type": "bytes4"
        }
      ],
      "name": "supportsInterface",
      "outputs": [
        {
          "internalType": "bool",
          "name": "",
          "type": "bool"
        }
      ],
      "stateMutability": "view",
      "type": "function"
    },
    {
      "inputs": [],
      "name": "symbol",
      "outputs": [
        {
          "internalType": "string",
          "name": "",
          "type": "string"
        }
      ],
      "stateMutability": "view",
      "type": "function"
    },
    {
      "inputs": [
        {
          "internalType": "uint256",
          "name": "index",
          "type": "uint256"
        }
      ],
      "name": "tokenByIndex",
      "outputs": [
        {
          "internalType": "uint256",
          "name": "",
          "type": "uint256"
        }
      ],
      "stateMutability": "view",
      "type": "function"
    },
    {
      "inputs": [
        {
          "internalType": "address",
          "name": "owner",
          "type": "address"
        },
        {
          "internalType": "uint256",
          "name": "index",
          "type": "uint256"
        }
      ],
      "name": "tokenOfOwnerByIndex",
      "outputs": [
        {
          "internalType": "uint256",
          "name": "",
          "type": "uint256"
        }
      ],
      "stateMutability": "view",
      "type": "function"
    },
    {
      "inputs": [
        {
          "internalType": "uint256",
          "name": "tokenId",
          "type": "uint256"
        }
      ],
      "name": "tokenURI",
      "outputs": [
        {
          "internalType": "string",
          "name": "",
          "type": "string"
        }
      ],
      "stateMutability": "view",
      "type": "function"
    },
    {
      "inputs": [],
      "name": "totalSupply",
      "outputs": [
        {
          "internalType": "uint256",
          "name": "",
          "type": "uint256"
        }
      ],
      "stateMutability": "view",
      "type": "function"
    },
    {
      "inputs": [
        {
          "internalType": "address",
          "name": "from",
          "type": "address"
        },
        {
          "internalType": "address",
          "name": "to",
          "type": "address"
        },
        {
          "internalType": "uint256",
          "name": "tokenId",
          "type": "uint256"
        }
      ],
      "name": "transferFrom",
      "outputs": [],
      "stateMutability": "nonpayable",
      "type": "function"
    },
    {
      "inputs": [],
      "name": "uriSet",
      "outputs": [
        {
          "internalType": "bool",
          "name": "",
          "type": "bool"
        }
      ],
      "stateMutability": "view",
      "type": "function"
    }
  ],
  "transactionHash": "0xd8bfe4ff5fc320f7c6e7e6bbccd9b59573b4c0ab48ac746e8f4d123550a9a621",
  "args": [],
  "numDeployments": 1,
  "solcInputHash": "1779434ab825b83ae837c40150a55801",
  "bytecode": "0x608060405234801561001057600080fd5b50611f49806100206000396000f3fe608060405234801561001057600080fd5b506004361061018e5760003560e01c80634f6ccce7116100de57806395d89b4111610097578063b88d4fde11610071578063b88d4fde14610336578063c87b56dd14610349578063e985e9c51461035c578063ede6346d1461039857600080fd5b806395d89b4114610308578063a22cb46514610310578063afd629361461032357600080fd5b80634f6ccce7146102a557806350a3a728146102b857806355f804b3146102c55780636352211e146102d857806370a08231146102eb57806384c4bd4b146102fe57600080fd5b806319f57e1a1161014b57806323b872dd1161012557806323b872dd146102595780632a68f64e1461026c5780632f745c591461027f57806342842e0e1461029257600080fd5b806319f57e1a1461022a5780631c5d2b491461023d57806322da98e71461025057600080fd5b806301ffc9a71461019357806306fdde03146101bb578063081812fc146101d0578063095ea7b3146101fb5780630d449db01461021057806318160ddd14610218575b600080fd5b6101a66101a1366004611878565b6103ab565b60405190151581526020015b60405180910390f35b6101c36103bc565b6040516101b291906118ed565b6101e36101de366004611900565b61044e565b6040516001600160a01b0390911681526020016101b2565b61020e610209366004611935565b610475565b005b6101c3610590565b6099545b6040519081526020016101b2565b61020e610238366004611935565b61061e565b61020e61024b366004611a0b565b6106fd565b61021c60ca5481565b61020e610267366004611a9b565b61084c565b60c9546101e3906001600160a01b031681565b61021c61028d366004611935565b61087d565b61020e6102a0366004611a9b565b610913565b61021c6102b3366004611900565b61092e565b60cc546101a69060ff1681565b61020e6102d3366004611ad7565b6109c1565b6101e36102e6366004611900565b610a0f565b61021c6102f9366004611b0c565b610a6f565b60cd5461021c9081565b6101c3610af5565b61020e61031e366004611b27565b610b04565b61020e610331366004611b0c565b610b0f565b61020e610344366004611b63565b610bff565b6101c3610357366004611900565b610c31565b6101a661036a366004611bdf565b6001600160a01b039182166000908152606a6020908152604080832093909416825291909152205460ff1690565b61020e6103a6366004611b0c565b610c98565b60006103b682610ce4565b92915050565b6060606580546103cb90611c12565b80601f01602080910402602001604051908101604052809291908181526020018280546103f790611c12565b80156104445780601f1061041957610100808354040283529160200191610444565b820191906000526020600020905b81548152906001019060200180831161042757829003601f168201915b5050505050905090565b600061045982610d09565b506000908152606960205260409020546001600160a01b031690565b600061048082610a0f565b9050806001600160a01b0316836001600160a01b031614156104f35760405162461bcd60e51b815260206004820152602160248201527f4552433732313a20617070726f76616c20746f2063757272656e74206f776e656044820152603960f91b60648201526084015b60405180910390fd5b336001600160a01b038216148061050f575061050f813361036a565b6105815760405162461bcd60e51b815260206004820152603e60248201527f4552433732313a20617070726f76652063616c6c6572206973206e6f7420746f60448201527f6b656e206f776e6572206e6f7220617070726f76656420666f7220616c6c000060648201526084016104ea565b61058b8383610d6b565b505050565b60cb805461059d90611c12565b80601f01602080910402602001604051908101604052809291908181526020018280546105c990611c12565b80156106165780601f106105eb57610100808354040283529160200191610616565b820191906000526020600020905b8154815290600101906020018083116105f957829003601f168201915b505050505081565b60cc54819060ff1615156001146106475760405162461bcd60e51b81526004016104ea90611c4d565b60ca548161065460995490565b61065e9190611ca4565b11156106a75760405162461bcd60e51b815260206004820152601860248201527713531510dbdb9d1c9858dd0e881054d4d15517d31253525560421b60448201526064016104ea565b60c9546001600160a01b031633146106d15760405162461bcd60e51b81526004016104ea90611cbc565b60005b828110156106f7576106e584610b0f565b806106ef81611d03565b9150506106d4565b50505050565b600054610100900460ff161580801561071d5750600054600160ff909116105b806107375750303b158015610737575060005460ff166001145b61079a5760405162461bcd60e51b815260206004820152602e60248201527f496e697469616c697a61626c653a20636f6e747261637420697320616c72656160448201526d191e481a5b9a5d1a585b1a5e995960921b60648201526084016104ea565b6000805460ff1916600117905580156107bd576000805461ff0019166101001790555b6107c78585610dd9565b60c980546001600160a01b0319163317905560ca82905560cc805460ff1916600117905582516107fe9060cb9060208601906117c9565b508015610845576000805461ff0019169055604051600181527f7f26b83ff96e1f2b6a682f133852f6798a09c465da95921460cefb38474024989060200160405180910390a15b5050505050565b6108563382610e0a565b6108725760405162461bcd60e51b81526004016104ea90611d1e565b61058b838383610e89565b600061088883610a6f565b82106108ea5760405162461bcd60e51b815260206004820152602b60248201527f455243373231456e756d657261626c653a206f776e657220696e646578206f7560448201526a74206f6620626f756e647360a81b60648201526084016104ea565b506001600160a01b03919091166000908152609760209081526040808320938352929052205490565b61058b83838360405180602001604052806000815250610bff565b600061093960995490565b821061099c5760405162461bcd60e51b815260206004820152602c60248201527f455243373231456e756d657261626c653a20676c6f62616c20696e646578206f60448201526b7574206f6620626f756e647360a01b60648201526084016104ea565b609982815481106109af576109af611d6c565b90600052602060002001549050919050565b60c9546001600160a01b031633146109eb5760405162461bcd60e51b81526004016104ea90611cbc565b60cc805460ff191660011790558051610a0b9060cb9060208401906117c9565b5050565b6000818152606760205260408120546001600160a01b0316806103b65760405162461bcd60e51b8152602060048201526018602482015277115490cdcc8c4e881a5b9d985b1a59081d1bdad95b88125160421b60448201526064016104ea565b60006001600160a01b038216610ad95760405162461bcd60e51b815260206004820152602960248201527f4552433732313a2061646472657373207a65726f206973206e6f7420612076616044820152683634b21037bbb732b960b91b60648201526084016104ea565b506001600160a01b031660009081526068602052604090205490565b6060606680546103cb90611c12565b610a0b338383611030565b60cc5460019060ff1615158114610b385760405162461bcd60e51b81526004016104ea90611c4d565b60ca5481610b4560995490565b610b4f9190611ca4565b1115610b985760405162461bcd60e51b815260206004820152601860248201527713531510dbdb9d1c9858dd0e881054d4d15517d31253525560421b60448201526064016104ea565b60c9546001600160a01b03163314610bc25760405162461bcd60e51b81526004016104ea90611cbc565b6000610bcd60cd5490565b905080610be757610be260cd80546001019055565b5060cd545b610bf183826110ff565b61058b60cd80546001019055565b610c093383610e0a565b610c255760405162461bcd60e51b81526004016104ea90611d1e565b6106f784848484611119565b6060610c3c82610d09565b6000610c4661114c565b90506000815111610c665760405180602001604052806000815250610c91565b80610c708461115b565b604051602001610c81929190611d82565b6040516020818303038152906040525b9392505050565b60c9546001600160a01b03163314610cc25760405162461bcd60e51b81526004016104ea90611cbc565b60c980546001600160a01b0319166001600160a01b0392909216919091179055565b60006001600160e01b0319821663780e9d6360e01b14806103b657506103b682611259565b6000818152606760205260409020546001600160a01b0316610d685760405162461bcd60e51b8152602060048201526018602482015277115490cdcc8c4e881a5b9d985b1a59081d1bdad95b88125160421b60448201526064016104ea565b50565b600081815260696020526040902080546001600160a01b0319166001600160a01b0384169081179091558190610da082610a0f565b6001600160a01b03167f8c5be1e5ebec7d5bd14f71427d1e84f3dd0314c0f7b2291e5b200ac8c7c3b92560405160405180910390a45050565b600054610100900460ff16610e005760405162461bcd60e51b81526004016104ea90611db1565b610a0b82826112a9565b600080610e1683610a0f565b9050806001600160a01b0316846001600160a01b03161480610e5d57506001600160a01b038082166000908152606a602090815260408083209388168352929052205460ff165b80610e815750836001600160a01b0316610e768461044e565b6001600160a01b0316145b949350505050565b826001600160a01b0316610e9c82610a0f565b6001600160a01b031614610f005760405162461bcd60e51b815260206004820152602560248201527f4552433732313a207472616e736665722066726f6d20696e636f72726563742060448201526437bbb732b960d91b60648201526084016104ea565b6001600160a01b038216610f625760405162461bcd60e51b8152602060048201526024808201527f4552433732313a207472616e7366657220746f20746865207a65726f206164646044820152637265737360e01b60648201526084016104ea565b610f6d8383836112f7565b610f78600082610d6b565b6001600160a01b0383166000908152606860205260408120805460019290610fa1908490611dfc565b90915550506001600160a01b0382166000908152606860205260408120805460019290610fcf908490611ca4565b909155505060008181526067602052604080822080546001600160a01b0319166001600160a01b0386811691821790925591518493918716917fddf252ad1be2c89b69c2b068fc378daa952ba7f163c4a11628f55a4df523b3ef91a4505050565b816001600160a01b0316836001600160a01b031614156110925760405162461bcd60e51b815260206004820152601960248201527f4552433732313a20617070726f766520746f2063616c6c65720000000000000060448201526064016104ea565b6001600160a01b038381166000818152606a6020908152604080832094871680845294825291829020805460ff191686151590811790915591519182527f17307eab39ab6107e8899845ad3d59bd9653f200f220920489ca2b5937696c31910160405180910390a3505050565b610a0b828260405180602001604052806000815250611302565b611124848484610e89565b61113084848484611335565b6106f75760405162461bcd60e51b81526004016104ea90611e13565b606060cb80546103cb90611c12565b60608161117f5750506040805180820190915260018152600360fc1b602082015290565b8160005b81156111a9578061119381611d03565b91506111a29050600a83611e7b565b9150611183565b60008167ffffffffffffffff8111156111c4576111c461195f565b6040519080825280601f01601f1916602001820160405280156111ee576020820181803683370190505b5090505b8415610e8157611203600183611dfc565b9150611210600a86611e8f565b61121b906030611ca4565b60f81b81838151811061123057611230611d6c565b60200101906001600160f81b031916908160001a905350611252600a86611e7b565b94506111f2565b60006001600160e01b031982166380ac58cd60e01b148061128a57506001600160e01b03198216635b5e139f60e01b145b806103b657506301ffc9a760e01b6001600160e01b03198316146103b6565b600054610100900460ff166112d05760405162461bcd60e51b81526004016104ea90611db1565b81516112e39060659060208501906117c9565b50805161058b9060669060208401906117c9565b61058b838383611433565b61130c83836114eb565b6113196000848484611335565b61058b5760405162461bcd60e51b81526004016104ea90611e13565b60006001600160a01b0384163b1561142857604051630a85bd0160e11b81526001600160a01b0385169063150b7a0290611379903390899088908890600401611ea3565b6020604051808303816000875af19250505080156113b4575060408051601f3d908101601f191682019092526113b191810190611ee0565b60015b61140e573d8080156113e2576040519150601f19603f3d011682016040523d82523d6000602084013e6113e7565b606091505b5080516114065760405162461bcd60e51b81526004016104ea90611e13565b805181602001fd5b6001600160e01b031916630a85bd0160e11b149050610e81565b506001949350505050565b6001600160a01b03831661148e5761148981609980546000838152609a60205260408120829055600182018355919091527f72a152ddfb8e864297c917af52ea6c1c68aead0fee1a62673fcc7e0c94979d000155565b6114b1565b816001600160a01b0316836001600160a01b0316146114b1576114b18382611639565b6001600160a01b0382166114c85761058b816116d6565b826001600160a01b0316826001600160a01b03161461058b5761058b8282611785565b6001600160a01b0382166115415760405162461bcd60e51b815260206004820181905260248201527f4552433732313a206d696e7420746f20746865207a65726f206164647265737360448201526064016104ea565b6000818152606760205260409020546001600160a01b0316156115a65760405162461bcd60e51b815260206004820152601c60248201527f4552433732313a20746f6b656e20616c7265616479206d696e7465640000000060448201526064016104ea565b6115b2600083836112f7565b6001600160a01b03821660009081526068602052604081208054600192906115db908490611ca4565b909155505060008181526067602052604080822080546001600160a01b0319166001600160a01b03861690811790915590518392907fddf252ad1be2c89b69c2b068fc378daa952ba7f163c4a11628f55a4df523b3ef908290a45050565b6000600161164684610a6f565b6116509190611dfc565b6000838152609860205260409020549091508082146116a3576001600160a01b03841660009081526097602090815260408083208584528252808320548484528184208190558352609890915290208190555b5060009182526098602090815260408084208490556001600160a01b039094168352609781528383209183525290812055565b6099546000906116e890600190611dfc565b6000838152609a60205260408120546099805493945090928490811061171057611710611d6c565b90600052602060002001549050806099838154811061173157611731611d6c565b6000918252602080832090910192909255828152609a9091526040808220849055858252812055609980548061176957611769611efd565b6001900381819060005260206000200160009055905550505050565b600061179083610a6f565b6001600160a01b039093166000908152609760209081526040808320868452825280832085905593825260989052919091209190915550565b8280546117d590611c12565b90600052602060002090601f0160209004810192826117f7576000855561183d565b82601f1061181057805160ff191683800117855561183d565b8280016001018555821561183d579182015b8281111561183d578251825591602001919060010190611822565b5061184992915061184d565b5090565b5b80821115611849576000815560010161184e565b6001600160e01b031981168114610d6857600080fd5b60006020828403121561188a57600080fd5b8135610c9181611862565b60005b838110156118b0578181015183820152602001611898565b838111156106f75750506000910152565b600081518084526118d9816020860160208601611895565b601f01601f19169290920160200192915050565b602081526000610c9160208301846118c1565b60006020828403121561191257600080fd5b5035919050565b80356001600160a01b038116811461193057600080fd5b919050565b6000806040838503121561194857600080fd5b61195183611919565b946020939093013593505050565b634e487b7160e01b600052604160045260246000fd5b600067ffffffffffffffff808411156119905761199061195f565b604051601f8501601f19908116603f011681019082821181831017156119b8576119b861195f565b816040528093508581528686860111156119d157600080fd5b858560208301376000602087830101525050509392505050565b600082601f8301126119fc57600080fd5b610c9183833560208501611975565b60008060008060808587031215611a2157600080fd5b843567ffffffffffffffff80821115611a3957600080fd5b611a45888389016119eb565b95506020870135915080821115611a5b57600080fd5b611a67888389016119eb565b94506040870135915080821115611a7d57600080fd5b50611a8a878288016119eb565b949793965093946060013593505050565b600080600060608486031215611ab057600080fd5b611ab984611919565b9250611ac760208501611919565b9150604084013590509250925092565b600060208284031215611ae957600080fd5b813567ffffffffffffffff811115611b0057600080fd5b610e81848285016119eb565b600060208284031215611b1e57600080fd5b610c9182611919565b60008060408385031215611b3a57600080fd5b611b4383611919565b915060208301358015158114611b5857600080fd5b809150509250929050565b60008060008060808587031215611b7957600080fd5b611b8285611919565b9350611b9060208601611919565b925060408501359150606085013567ffffffffffffffff811115611bb357600080fd5b8501601f81018713611bc457600080fd5b611bd387823560208401611975565b91505092959194509250565b60008060408385031215611bf257600080fd5b611bfb83611919565b9150611c0960208401611919565b90509250929050565b600181811c90821680611c2657607f821691505b60208210811415611c4757634e487b7160e01b600052602260045260246000fd5b50919050565b60208082526021908201527f4d4c54436f6e74726163743a20494e56414c49445f424153455f5552495f53456040820152601560fa1b606082015260800190565b634e487b7160e01b600052601160045260246000fd5b60008219821115611cb757611cb7611c8e565b500190565b60208082526027908201527f4d4c54436f6e74726163743a2043414c4c45525f4d5553545f42455f4d41535460408201526622a920a226a4a760c91b606082015260800190565b6000600019821415611d1757611d17611c8e565b5060010190565b6020808252602e908201527f4552433732313a2063616c6c6572206973206e6f7420746f6b656e206f776e6560408201526d1c881b9bdc88185c1c1c9bdd995960921b606082015260800190565b634e487b7160e01b600052603260045260246000fd5b60008351611d94818460208801611895565b835190830190611da8818360208801611895565b01949350505050565b6020808252602b908201527f496e697469616c697a61626c653a20636f6e7472616374206973206e6f74206960408201526a6e697469616c697a696e6760a81b606082015260800190565b600082821015611e0e57611e0e611c8e565b500390565b60208082526032908201527f4552433732313a207472616e7366657220746f206e6f6e20455243373231526560408201527131b2b4bb32b91034b6b83632b6b2b73a32b960711b606082015260800190565b634e487b7160e01b600052601260045260246000fd5b600082611e8a57611e8a611e65565b500490565b600082611e9e57611e9e611e65565b500690565b6001600160a01b0385811682528416602082015260408101839052608060608201819052600090611ed6908301846118c1565b9695505050505050565b600060208284031215611ef257600080fd5b8151610c9181611862565b634e487b7160e01b600052603160045260246000fdfea2646970667358221220eb792f311c283470cb0e7b16b7ecf51cf8c6c651e5daebce231e0ff29ffc660264736f6c634300080b0033",
  "devdoc": {
    "kind": "dev",
    "methods": {
      "approve(address,uint256)": {
        "details": "See {IERC721-approve}."
      },
      "balanceOf(address)": {
        "details": "See {IERC721-balanceOf}."
      },
      "getApproved(uint256)": {
        "details": "See {IERC721-getApproved}."
      },
      "isApprovedForAll(address,address)": {
        "details": "See {IERC721-isApprovedForAll}."
      },
      "name()": {
        "details": "See {IERC721Metadata-name}."
      },
      "ownerOf(uint256)": {
        "details": "See {IERC721-ownerOf}."
      },
      "safeTransferFrom(address,address,uint256)": {
        "details": "See {IERC721-safeTransferFrom}."
      },
      "safeTransferFrom(address,address,uint256,bytes)": {
        "details": "See {IERC721-safeTransferFrom}."
      },
      "setApprovalForAll(address,bool)": {
        "details": "See {IERC721-setApprovalForAll}."
      },
      "supportsInterface(bytes4)": {
        "details": "See {IERC165-supportsInterface}."
      },
      "symbol()": {
        "details": "See {IERC721Metadata-symbol}."
      },
      "tokenByIndex(uint256)": {
        "details": "See {IERC721Enumerable-tokenByIndex}."
      },
      "tokenOfOwnerByIndex(address,uint256)": {
        "details": "See {IERC721Enumerable-tokenOfOwnerByIndex}."
      },
      "tokenURI(uint256)": {
        "details": "See {IERC721Metadata-tokenURI}."
      },
      "totalSupply()": {
        "details": "See {IERC721Enumerable-totalSupply}."
      },
      "transferFrom(address,address,uint256)": {
        "details": "See {IERC721-transferFrom}."
      }
    },
    "version": 1
  },
  "userdoc": {
    "kind": "user",
    "methods": {},
    "version": 1
  },
  "storageLayout": {
    "storage": [
      {
        "astId": 6,
        "contract": "src/MyLittleTiger.sol:MyLittleTiger",
        "label": "_initialized",
        "offset": 0,
        "slot": "0",
        "type": "t_uint8"
      },
      {
        "astId": 9,
        "contract": "src/MyLittleTiger.sol:MyLittleTiger",
        "label": "_initializing",
        "offset": 1,
        "slot": "0",
        "type": "t_bool"
      },
      {
        "astId": 1876,
        "contract": "src/MyLittleTiger.sol:MyLittleTiger",
        "label": "__gap",
        "offset": 0,
        "slot": "1",
        "type": "t_array(t_uint256)50_storage"
      },
      {
        "astId": 2146,
        "contract": "src/MyLittleTiger.sol:MyLittleTiger",
        "label": "__gap",
        "offset": 0,
        "slot": "51",
        "type": "t_array(t_uint256)50_storage"
      },
      {
        "astId": 179,
        "contract": "src/MyLittleTiger.sol:MyLittleTiger",
        "label": "_name",
        "offset": 0,
        "slot": "101",
        "type": "t_string_storage"
      },
      {
        "astId": 181,
        "contract": "src/MyLittleTiger.sol:MyLittleTiger",
        "label": "_symbol",
        "offset": 0,
        "slot": "102",
        "type": "t_string_storage"
      },
      {
        "astId": 185,
        "contract": "src/MyLittleTiger.sol:MyLittleTiger",
        "label": "_owners",
        "offset": 0,
        "slot": "103",
        "type": "t_mapping(t_uint256,t_address)"
      },
      {
        "astId": 189,
        "contract": "src/MyLittleTiger.sol:MyLittleTiger",
        "label": "_balances",
        "offset": 0,
        "slot": "104",
        "type": "t_mapping(t_address,t_uint256)"
      },
      {
        "astId": 193,
        "contract": "src/MyLittleTiger.sol:MyLittleTiger",
        "label": "_tokenApprovals",
        "offset": 0,
        "slot": "105",
        "type": "t_mapping(t_uint256,t_address)"
      },
      {
        "astId": 199,
        "contract": "src/MyLittleTiger.sol:MyLittleTiger",
        "label": "_operatorApprovals",
        "offset": 0,
        "slot": "106",
        "type": "t_mapping(t_address,t_mapping(t_address,t_bool))"
      },
      {
        "astId": 1041,
        "contract": "src/MyLittleTiger.sol:MyLittleTiger",
        "label": "__gap",
        "offset": 0,
        "slot": "107",
        "type": "t_array(t_uint256)44_storage"
      },
      {
        "astId": 1206,
        "contract": "src/MyLittleTiger.sol:MyLittleTiger",
        "label": "_ownedTokens",
        "offset": 0,
        "slot": "151",
        "type": "t_mapping(t_address,t_mapping(t_uint256,t_uint256))"
      },
      {
        "astId": 1210,
        "contract": "src/MyLittleTiger.sol:MyLittleTiger",
        "label": "_ownedTokensIndex",
        "offset": 0,
        "slot": "152",
        "type": "t_mapping(t_uint256,t_uint256)"
      },
      {
        "astId": 1213,
        "contract": "src/MyLittleTiger.sol:MyLittleTiger",
        "label": "_allTokens",
        "offset": 0,
        "slot": "153",
        "type": "t_array(t_uint256)dyn_storage"
      },
      {
        "astId": 1217,
        "contract": "src/MyLittleTiger.sol:MyLittleTiger",
        "label": "_allTokensIndex",
        "offset": 0,
        "slot": "154",
        "type": "t_mapping(t_uint256,t_uint256)"
      },
      {
        "astId": 1533,
        "contract": "src/MyLittleTiger.sol:MyLittleTiger",
        "label": "__gap",
        "offset": 0,
        "slot": "155",
        "type": "t_array(t_uint256)46_storage"
      },
      {
        "astId": 2245,
        "contract": "src/MyLittleTiger.sol:MyLittleTiger",
        "label": "masterAdmin",
        "offset": 0,
        "slot": "201",
        "type": "t_address"
      },
      {
        "astId": 2247,
        "contract": "src/MyLittleTiger.sol:MyLittleTiger",
        "label": "assetLimit",
        "offset": 0,
        "slot": "202",
        "type": "t_uint256"
      },
      {
        "astId": 2249,
        "contract": "src/MyLittleTiger.sol:MyLittleTiger",
        "label": "baseURIextended",
        "offset": 0,
        "slot": "203",
        "type": "t_string_storage"
      },
      {
        "astId": 2251,
        "contract": "src/MyLittleTiger.sol:MyLittleTiger",
        "label": "uriSet",
        "offset": 0,
        "slot": "204",
        "type": "t_bool"
      },
      {
        "astId": 2254,
        "contract": "src/MyLittleTiger.sol:MyLittleTiger",
        "label": "_tokenIdCounter",
        "offset": 0,
        "slot": "205",
        "type": "t_struct(Counter)2165_storage"
      }
    ],
    "types": {
      "t_address": {
        "encoding": "inplace",
        "label": "address",
        "numberOfBytes": "20"
      },
      "t_array(t_uint256)44_storage": {
        "base": "t_uint256",
        "encoding": "inplace",
        "label": "uint256[44]",
        "numberOfBytes": "1408"
      },
      "t_array(t_uint256)46_storage": {
        "base": "t_uint256",
        "encoding": "inplace",
        "label": "uint256[46]",
        "numberOfBytes": "1472"
      },
      "t_array(t_uint256)50_storage": {
        "base": "t_uint256",
        "encoding": "inplace",
        "label": "uint256[50]",
        "numberOfBytes": "1600"
      },
      "t_array(t_uint256)dyn_storage": {
        "base": "t_uint256",
        "encoding": "dynamic_array",
        "label": "uint256[]",
        "numberOfBytes": "32"
      },
      "t_bool": {
        "encoding": "inplace",
        "label": "bool",
        "numberOfBytes": "1"
      },
      "t_mapping(t_address,t_bool)": {
        "encoding": "mapping",
        "key": "t_address",
        "label": "mapping(address => bool)",
        "numberOfBytes": "32",
        "value": "t_bool"
      },
      "t_mapping(t_address,t_mapping(t_address,t_bool))": {
        "encoding": "mapping",
        "key": "t_address",
        "label": "mapping(address => mapping(address => bool))",
        "numberOfBytes": "32",
        "value": "t_mapping(t_address,t_bool)"
      },
      "t_mapping(t_address,t_mapping(t_uint256,t_uint256))": {
        "encoding": "mapping",
        "key": "t_address",
        "label": "mapping(address => mapping(uint256 => uint256))",
        "numberOfBytes": "32",
        "value": "t_mapping(t_uint256,t_uint256)"
      },
      "t_mapping(t_address,t_uint256)": {
        "encoding": "mapping",
        "key": "t_address",
        "label": "mapping(address => uint256)",
        "numberOfBytes": "32",
        "value": "t_uint256"
      },
      "t_mapping(t_uint256,t_address)": {
        "encoding": "mapping",
        "key": "t_uint256",
        "label": "mapping(uint256 => address)",
        "numberOfBytes": "32",
        "value": "t_address"
      },
      "t_mapping(t_uint256,t_uint256)": {
        "encoding": "mapping",
        "key": "t_uint256",
        "label": "mapping(uint256 => uint256)",
        "numberOfBytes": "32",
        "value": "t_uint256"
      },
      "t_string_storage": {
        "encoding": "bytes",
        "label": "string",
        "numberOfBytes": "32"
      },
      "t_struct(Counter)2165_storage": {
        "encoding": "inplace",
        "label": "struct Counters.Counter",
        "members": [
          {
            "astId": 2164,
            "contract": "src/MyLittleTiger.sol:MyLittleTiger",
            "label": "_value",
            "offset": 0,
            "slot": "0",
            "type": "t_uint256"
          }
        ],
        "numberOfBytes": "32"
      },
      "t_uint256": {
        "encoding": "inplace",
        "label": "uint256",
        "numberOfBytes": "32"
      },
      "t_uint8": {
        "encoding": "inplace",
        "label": "uint8",
        "numberOfBytes": "1"
      }
    }
  }
}