{
  "address": "0xD4A3E55Ac4d74a1130eBEC4540b406BC8CAdD125",
  "abi": [
    {
      "anonymous": false,
      "inputs": [
        {
          "indexed": true,
          "internalType": "address",
          "name": "owner",
          "type": "address"
        },
        {
          "indexed": true,
          "internalType": "address",
          "name": "approved",
          "type": "address"
        },
        {
          "indexed": true,
          "internalType": "uint256",
          "name": "tokenId",
          "type": "uint256"
        }
      ],
      "name": "Approval",
      "type": "event"
    },
    {
      "anonymous": false,
      "inputs": [
        {
          "indexed": true,
          "internalType": "address",
          "name": "owner",
          "type": "address"
        },
        {
          "indexed": true,
          "internalType": "address",
          "name": "operator",
          "type": "address"
        },
        {
          "indexed": false,
          "internalType": "bool",
          "name": "approved",
          "type": "bool"
        }
      ],
      "name": "ApprovalForAll",
      "type": "event"
    },
    {
      "anonymous": false,
      "inputs": [
        {
          "indexed": false,
          "internalType": "uint8",
          "name": "version",
          "type": "uint8"
        }
      ],
      "name": "Initialized",
      "type": "event"
    },
    {
      "anonymous": false,
      "inputs": [
        {
          "indexed": true,
          "internalType": "address",
          "name": "from",
          "type": "address"
        },
        {
          "indexed": true,
          "internalType": "address",
          "name": "to",
          "type": "address"
        },
        {
          "indexed": true,
          "internalType": "uint256",
          "name": "tokenId",
          "type": "uint256"
        }
      ],
      "name": "Transfer",
      "type": "event"
    },
    {
      "inputs": [],
      "name": "_tokenIdCounter",
      "outputs": [
        {
          "internalType": "uint256",
          "name": "_value",
          "type": "uint256"
        }
      ],
      "stateMutability": "view",
      "type": "function"
    },
    {
      "inputs": [
        {
          "internalType": "address",
          "name": "receiver",
          "type": "address"
        },
        {
          "internalType": "uint256",
          "name": "mintNum",
          "type": "uint256"
        }
      ],
      "name": "adminMint",
      "outputs": [],
      "stateMutability": "nonpayable",
      "type": "function"
    },
    {
      "inputs": [
        {
          "internalType": "address",
          "name": "to",
          "type": "address"
        },
        {
          "internalType": "uint256",
          "name": "tokenId",
          "type": "uint256"
        }
      ],
      "name": "approve",
      "outputs": [],
      "stateMutability": "nonpayable",
      "type": "function"
    },
    {
      "inputs": [],
      "name": "assetLimit",
      "outputs": [
        {
          "internalType": "uint256",
          "name": "",
          "type": "uint256"
        }
      ],
      "stateMutability": "view",
      "type": "function"
    },
    {
      "inputs": [
        {
          "internalType": "address",
          "name": "owner",
          "type": "address"
        }
      ],
      "name": "balanceOf",
      "outputs": [
        {
          "internalType": "uint256",
          "name": "",
          "type": "uint256"
        }
      ],
      "stateMutability": "view",
      "type": "function"
    },
    {
      "inputs": [],
      "name": "baseURIextended",
      "outputs": [
        {
          "internalType": "string",
          "name": "",
          "type": "string"
        }
      ],
      "stateMutability": "view",
      "type": "function"
    },
    {
      "inputs": [
        {
          "internalType": "uint256",
          "name": "tokenId",
          "type": "uint256"
        }
      ],
      "name": "getApproved",
      "outputs": [
        {
          "internalType": "address",
          "name": "",
          "type": "address"
        }
      ],
      "stateMutability": "view",
      "type": "function"
    },
    {
      "inputs": [
        {
          "internalType": "string",
          "name": "name_",
          "type": "string"
        },
        {
          "internalType": "string",
          "name": "symbol_",
          "type": "string"
        },
        {
          "internalType": "uint256",
          "name": "assetLimit_",
          "type": "uint256"
        }
      ],
      "name": "initialize",
      "outputs": [],
      "stateMutability": "nonpayable",
      "type": "function"
    },
    {
      "inputs": [
        {
          "internalType": "address",
          "name": "owner",
          "type": "address"
        },
        {
          "internalType": "address",
          "name": "operator",
          "type": "address"
        }
      ],
      "name": "isApprovedForAll",
      "outputs": [
        {
          "internalType": "bool",
          "name": "",
          "type": "bool"
        }
      ],
      "stateMutability": "view",
      "type": "function"
    },
    {
      "inputs": [],
      "name": "isTransferBlocked",
      "outputs": [
        {
          "internalType": "bool",
          "name": "",
          "type": "bool"
        }
      ],
      "stateMutability": "view",
      "type": "function"
    },
    {
      "inputs": [],
      "name": "masterAdmin",
      "outputs": [
        {
          "internalType": "address",
          "name": "",
          "type": "address"
        }
      ],
      "stateMutability": "view",
      "type": "function"
    },
    {
      "inputs": [],
      "name": "name",
      "outputs": [
        {
          "internalType": "string",
          "name": "",
          "type": "string"
        }
      ],
      "stateMutability": "view",
      "type": "function"
    },
    {
      "inputs": [
        {
          "internalType": "uint256",
          "name": "tokenId",
          "type": "uint256"
        }
      ],
      "name": "ownerOf",
      "outputs": [
        {
          "internalType": "address",
          "name": "",
          "type": "address"
        }
      ],
      "stateMutability": "view",
      "type": "function"
    },
    {
      "inputs": [
        {
          "internalType": "address",
          "name": "from",
          "type": "address"
        },
        {
          "internalType": "address",
          "name": "to",
          "type": "address"
        },
        {
          "internalType": "uint256",
          "name": "tokenId",
          "type": "uint256"
        }
      ],
      "name": "safeTransferFrom",
      "outputs": [],
      "stateMutability": "nonpayable",
      "type": "function"
    },
    {
      "inputs": [
        {
          "internalType": "address",
          "name": "from",
          "type": "address"
        },
        {
          "internalType": "address",
          "name": "to",
          "type": "address"
        },
        {
          "internalType": "uint256",
          "name": "tokenId",
          "type": "uint256"
        },
        {
          "internalType": "bytes",
          "name": "data",
          "type": "bytes"
        }
      ],
      "name": "safeTransferFrom",
      "outputs": [],
      "stateMutability": "nonpayable",
      "type": "function"
    },
    {
      "inputs": [
        {
          "internalType": "address",
          "name": "operator",
          "type": "address"
        },
        {
          "internalType": "bool",
          "name": "approved",
          "type": "bool"
        }
      ],
      "name": "setApprovalForAll",
      "outputs": [],
      "stateMutability": "nonpayable",
      "type": "function"
    },
    {
      "inputs": [
        {
          "internalType": "uint256",
          "name": "assetLimit_",
          "type": "uint256"
        }
      ],
      "name": "setAssetLimit",
      "outputs": [],
      "stateMutability": "nonpayable",
      "type": "function"
    },
    {
      "inputs": [
        {
          "internalType": "string",
          "name": "baseURI_",
          "type": "string"
        }
      ],
      "name": "setBaseURI",
      "outputs": [],
      "stateMutability": "nonpayable",
      "type": "function"
    },
    {
      "inputs": [
        {
          "internalType": "address",
          "name": "masterAdmin_",
          "type": "address"
        }
      ],
      "name": "setMasterAdmin",
      "outputs": [],
      "stateMutability": "nonpayable",
      "type": "function"
    },
    {
      "inputs": [
        {
          "internalType": "bool",
          "name": "isTransferBlocked_",
          "type": "bool"
        }
      ],
      "name": "setTransferBlock",
      "outputs": [],
      "stateMutability": "nonpayable",
      "type": "function"
    },
    {
      "inputs": [
        {
          "internalType": "address",
          "name": "user",
          "type": "address"
        }
      ],
      "name": "setWhiteList",
      "outputs": [],
      "stateMutability": "nonpayable",
      "type": "function"
    },
    {
      "inputs": [
        {
          "internalType": "address",
          "name": "receiver",
          "type": "address"
        }
      ],
      "name": "singleMint",
      "outputs": [],
      "stateMutability": "nonpayable",
      "type": "function"
    },
    {
      "inputs": [
        {
          "internalType": "bytes4",
          "name": "interfaceId",
          "type": "bytes4"
        }
      ],
      "name": "supportsInterface",
      "outputs": [
        {
          "internalType": "bool",
          "name": "",
          "type": "bool"
        }
      ],
      "stateMutability": "view",
      "type": "function"
    },
    {
      "inputs": [],
      "name": "symbol",
      "outputs": [
        {
          "internalType": "string",
          "name": "",
          "type": "string"
        }
      ],
      "stateMutability": "view",
      "type": "function"
    },
    {
      "inputs": [
        {
          "internalType": "uint256",
          "name": "index",
          "type": "uint256"
        }
      ],
      "name": "tokenByIndex",
      "outputs": [
        {
          "internalType": "uint256",
          "name": "",
          "type": "uint256"
        }
      ],
      "stateMutability": "view",
      "type": "function"
    },
    {
      "inputs": [
        {
          "internalType": "address",
          "name": "owner",
          "type": "address"
        },
        {
          "internalType": "uint256",
          "name": "index",
          "type": "uint256"
        }
      ],
      "name": "tokenOfOwnerByIndex",
      "outputs": [
        {
          "internalType": "uint256",
          "name": "",
          "type": "uint256"
        }
      ],
      "stateMutability": "view",
      "type": "function"
    },
    {
      "inputs": [
        {
          "internalType": "uint256",
          "name": "tokenId",
          "type": "uint256"
        }
      ],
      "name": "tokenURI",
      "outputs": [
        {
          "internalType": "string",
          "name": "",
          "type": "string"
        }
      ],
      "stateMutability": "view",
      "type": "function"
    },
    {
      "inputs": [],
      "name": "totalSupply",
      "outputs": [
        {
          "internalType": "uint256",
          "name": "",
          "type": "uint256"
        }
      ],
      "stateMutability": "view",
      "type": "function"
    },
    {
      "inputs": [
        {
          "internalType": "address",
          "name": "from",
          "type": "address"
        },
        {
          "internalType": "address",
          "name": "to",
          "type": "address"
        },
        {
          "internalType": "uint256",
          "name": "tokenId",
          "type": "uint256"
        }
      ],
      "name": "transferFrom",
      "outputs": [],
      "stateMutability": "nonpayable",
      "type": "function"
    },
    {
      "inputs": [],
      "name": "uriSet",
      "outputs": [
        {
          "internalType": "bool",
          "name": "",
          "type": "bool"
        }
      ],
      "stateMutability": "view",
      "type": "function"
    },
    {
      "inputs": [
        {
          "internalType": "uint256",
          "name": "",
          "type": "uint256"
        }
      ],
      "name": "whiteList",
      "outputs": [
        {
          "internalType": "address",
          "name": "",
          "type": "address"
        }
      ],
      "stateMutability": "view",
      "type": "function"
    }
  ],
  "transactionHash": "0xec6efbfe67c82ed84d484e20750219876afb25b8e9d5f7047f00901236faa0f2",
  "args": [],
  "numDeployments": 1,
  "solcInputHash": "1db5747f2d79ce94fff26a6f390d538b",
  "bytecode": "0x608060405234801561001057600080fd5b506124f4806100206000396000f3fe608060405234801561001057600080fd5b50600436106101e55760003560e01c806350a3a7281161010f578063afd62936116100a2578063c87b56dd11610071578063c87b56dd146103eb578063e58306f9146103fe578063e985e9c514610411578063ede6346d1461044d57600080fd5b8063afd629361461039f578063b119490e146103b2578063b88d4fde146103c5578063bc639b51146103d857600080fd5b806370a08231116100de57806370a082311461036757806384c4bd4b1461037a57806395d89b4114610384578063a22cb4651461038c57600080fd5b806350a3a7281461032157806355f804b31461032e5780635c475d42146103415780636352211e1461035457600080fd5b806322da98e71161018757806339e899ee1161015657806339e899ee146102d557806342842e0e146102e857806343537153146102fb5780634f6ccce71461030e57600080fd5b806322da98e71461028e57806323b872dd146102975780632a68f64e146102aa5780632f745c59146102c257600080fd5b8063095ea7b3116101c3578063095ea7b3146102525780630d449db0146102675780630e1e25871461026f57806318160ddd1461027c57600080fd5b806301ffc9a7146101ea57806306fdde0314610212578063081812fc14610227575b600080fd5b6101fd6101f8366004611e25565b610460565b60405190151581526020015b60405180910390f35b61021a610471565b6040516102099190611e9a565b61023a610235366004611ead565b610503565b6040516001600160a01b039091168152602001610209565b610265610260366004611ee2565b61052a565b005b61021a610645565b60cb546101fd9060ff1681565b6099545b604051908152602001610209565b61028060cc5481565b6102656102a5366004611f0c565b6106d3565b60cb5461023a9061010090046001600160a01b031681565b6102806102d0366004611ee2565b610726565b6102656102e3366004611f48565b6107bc565b6102656102f6366004611f0c565b6108bb565b610265610309366004611f73565b610908565b61028061031c366004611ead565b61094a565b60ce546101fd9060ff1681565b61026561033c36600461203a565b6109dd565b61023a61034f366004611ead565b610a30565b61023a610362366004611ead565b610a5a565b610280610375366004611f48565b610aba565b60cf546102809081565b61021a610b40565b61026561039a36600461206f565b610b4f565b6102656103ad366004611f48565b610b5a565b6102656103c03660046120a2565b610e97565b6102656103d336600461210f565b611033565b6102656103e6366004611ead565b611088565b61021a6103f9366004611ead565b6110bc565b61026561040c366004611ee2565b611123565b6101fd61041f36600461218b565b6001600160a01b039182166000908152606a6020908152604080832093909416825291909152205460ff1690565b61026561045b366004611f48565b611178565b600061046b826111cf565b92915050565b606060658054610480906121b5565b80601f01602080910402602001604051908101604052809291908181526020018280546104ac906121b5565b80156104f95780601f106104ce576101008083540402835291602001916104f9565b820191906000526020600020905b8154815290600101906020018083116104dc57829003601f168201915b5050505050905090565b600061050e826111f4565b506000908152606960205260409020546001600160a01b031690565b600061053582610a5a565b9050806001600160a01b0316836001600160a01b031614156105a85760405162461bcd60e51b815260206004820152602160248201527f4552433732313a20617070726f76616c20746f2063757272656e74206f776e656044820152603960f91b60648201526084015b60405180910390fd5b336001600160a01b03821614806105c457506105c4813361041f565b6106365760405162461bcd60e51b815260206004820152603e60248201527f4552433732313a20617070726f76652063616c6c6572206973206e6f7420746f60448201527f6b656e206f776e6572206e6f7220617070726f76656420666f7220616c6c0000606482015260840161059f565b6106408383611256565b505050565b60cd8054610652906121b5565b80601f016020809104026020016040519081016040528092919081815260200182805461067e906121b5565b80156106cb5780601f106106a0576101008083540402835291602001916106cb565b820191906000526020600020905b8154815290600101906020018083116106ae57829003601f168201915b505050505081565b60cb54839060ff1615806106f9575060cb546001600160a01b0382811661010090920416145b6107155760405162461bcd60e51b815260040161059f906121f0565b6107208484846112c4565b50505050565b600061073183610aba565b82106107935760405162461bcd60e51b815260206004820152602b60248201527f455243373231456e756d657261626c653a206f776e657220696e646578206f7560448201526a74206f6620626f756e647360a81b606482015260840161059f565b506001600160a01b03919091166000908152609760209081526040808320938352929052205490565b60cb5461010090046001600160a01b031633146107eb5760405162461bcd60e51b815260040161059f90612227565b6001600160a01b038116600090815260ca602052604090205460ff16156108545760405162461bcd60e51b815260206004820152601d60248201527f436f6e74726163744572726f723a20414c52454144595f4c4953544544000000604482015260640161059f565b60c9805460018181019092557f66be4f155c5ef2ebd3772b228f2f00681e4ed5826cdb3b1943cc11ad15ad1d280180546001600160a01b039093166001600160a01b031990931683179055600091825260ca6020526040909120805460ff19169091179055565b60cb54839060ff1615806108e1575060cb546001600160a01b0382811661010090920416145b6108fd5760405162461bcd60e51b815260040161059f906121f0565b6107208484846112f5565b60cb5461010090046001600160a01b031633146109375760405162461bcd60e51b815260040161059f90612227565b60cb805460ff1916911515919091179055565b600061095560995490565b82106109b85760405162461bcd60e51b815260206004820152602c60248201527f455243373231456e756d657261626c653a20676c6f62616c20696e646578206f60448201526b7574206f6620626f756e647360a01b606482015260840161059f565b609982815481106109cb576109cb612270565b90600052602060002001549050919050565b60cb5461010090046001600160a01b03163314610a0c5760405162461bcd60e51b815260040161059f90612227565b60ce805460ff191660011790558051610a2c9060cd906020840190611d76565b5050565b60c98181548110610a4057600080fd5b6000918252602090912001546001600160a01b0316905081565b6000818152606760205260408120546001600160a01b03168061046b5760405162461bcd60e51b8152602060048201526018602482015277115490cdcc8c4e881a5b9d985b1a59081d1bdad95b88125160421b604482015260640161059f565b60006001600160a01b038216610b245760405162461bcd60e51b815260206004820152602960248201527f4552433732313a2061646472657373207a65726f206973206e6f7420612076616044820152683634b21037bbb732b960b91b606482015260840161059f565b506001600160a01b031660009081526068602052604090205490565b606060668054610480906121b5565b610a2c338383611310565b60ce54819060ff161515600114610bbf5760405162461bcd60e51b815260206004820152602360248201527f436f6e74726163744572726f723a20494e56414c49445f424153455f5552495f60448201526214d15560ea1b606482015260840161059f565b33600090815260ca602052604090205460ff161515600114610c235760405162461bcd60e51b815260206004820152601c60248201527f436f6e74726163744572726f723a204143434553535f44454e49454400000000604482015260640161059f565b60cb5461010090046001600160a01b0316331480610c495750336001600160a01b038216145b610ca35760405162461bcd60e51b815260206004820152602560248201527f436f6e74726163744572726f723a2043414c4c45525f49535f4e4f545f52454360448201526422a4ab22a960d91b606482015260840161059f565b60cc54609954610cb490600161229c565b1115610d025760405162461bcd60e51b815260206004820152601a60248201527f436f6e74726163744572726f723a2041535345545f4c494d4954000000000000604482015260640161059f565b610d0b826113df565b600060c9805480602002602001604051908101604052809291908181526020018280548015610d6357602002820191906000526020600020905b81546001600160a01b03168152600190910190602001808311610d45575b505083519394506000925050505b81811015610e7257846001600160a01b031660c98281548110610d9657610d96612270565b6000918252602090912001546001600160a01b03161415610e605760c9610dbe6001846122b4565b81548110610dce57610dce612270565b60009182526020909120015460c980546001600160a01b039092169183908110610dfa57610dfa612270565b9060005260206000200160006101000a8154816001600160a01b0302191690836001600160a01b0316021790555060c9805480610e3957610e396122cb565b600082815260209020810160001990810180546001600160a01b0319169055019055610e72565b610e6b60018261229c565b9050610d71565b505050506001600160a01b0316600090815260ca60205260409020805460ff19169055565b600054610100900460ff1615808015610eb75750600054600160ff909116105b80610ed15750303b158015610ed1575060005460ff166001145b610f345760405162461bcd60e51b815260206004820152602e60248201527f496e697469616c697a61626c653a20636f6e747261637420697320616c72656160448201526d191e481a5b9a5d1a585b1a5e995960921b606482015260840161059f565b6000805460ff191660011790558015610f57576000805461ff0019166101001790555b610f61848461141c565b60cb8054610100600160a81b03191633610100810291909117825560c9805460018181019092557f66be4f155c5ef2ebd3772b228f2f00681e4ed5826cdb3b1943cc11ad15ad1d280180546001600160a01b03191683179055600091825260ca6020526040909120805460ff19908116909217905560cc84905560ce80548216905581541690558015610720576000805461ff0019169055604051600181527f7f26b83ff96e1f2b6a682f133852f6798a09c465da95921460cefb38474024989060200160405180910390a150505050565b60cb54849060ff161580611059575060cb546001600160a01b0382811661010090920416145b6110755760405162461bcd60e51b815260040161059f906121f0565b6110818585858561144d565b5050505050565b60cb5461010090046001600160a01b031633146110b75760405162461bcd60e51b815260040161059f90612227565b60cc55565b60606110c7826111f4565b60006110d161147f565b905060008151116110f1576040518060200160405280600081525061111c565b806110fb8461148e565b60405160200161110c9291906122e1565b6040516020818303038152906040525b9392505050565b60cb5461010090046001600160a01b031633146111525760405162461bcd60e51b815260040161059f90612227565b60005b8181101561064057611166836113df565b8061117081612320565b915050611155565b60cb5461010090046001600160a01b031633146111a75760405162461bcd60e51b815260040161059f90612227565b60cb80546001600160a01b0390921661010002610100600160a81b0319909216919091179055565b60006001600160e01b0319821663780e9d6360e01b148061046b575061046b82611594565b6000818152606760205260409020546001600160a01b03166112535760405162461bcd60e51b8152602060048201526018602482015277115490cdcc8c4e881a5b9d985b1a59081d1bdad95b88125160421b604482015260640161059f565b50565b600081815260696020526040902080546001600160a01b0319166001600160a01b038416908117909155819061128b82610a5a565b6001600160a01b03167f8c5be1e5ebec7d5bd14f71427d1e84f3dd0314c0f7b2291e5b200ac8c7c3b92560405160405180910390a45050565b6112ce33826115e4565b6112ea5760405162461bcd60e51b815260040161059f9061233b565b610640838383611662565b61064083838360405180602001604052806000815250611033565b816001600160a01b0316836001600160a01b031614156113725760405162461bcd60e51b815260206004820152601960248201527f4552433732313a20617070726f766520746f2063616c6c657200000000000000604482015260640161059f565b6001600160a01b038381166000818152606a6020908152604080832094871680845294825291829020805460ff191686151590811790915591519182527f17307eab39ab6107e8899845ad3d59bd9653f200f220920489ca2b5937696c31910160405180910390a3505050565b60006113ea60cf5490565b905080611404576113ff60cf80546001019055565b5060cf545b61140e8282611809565b610a2c60cf80546001019055565b600054610100900460ff166114435760405162461bcd60e51b815260040161059f90612389565b610a2c8282611823565b61145733836115e4565b6114735760405162461bcd60e51b815260040161059f9061233b565b61072084848484611871565b606060cd8054610480906121b5565b6060816114b25750506040805180820190915260018152600360fc1b602082015290565b8160005b81156114dc57806114c681612320565b91506114d59050600a836123ea565b91506114b6565b60008167ffffffffffffffff8111156114f7576114f7611f8e565b6040519080825280601f01601f191660200182016040528015611521576020820181803683370190505b5090505b841561158c576115366001836122b4565b9150611543600a866123fe565b61154e90603061229c565b60f81b81838151811061156357611563612270565b60200101906001600160f81b031916908160001a905350611585600a866123ea565b9450611525565b949350505050565b60006001600160e01b031982166380ac58cd60e01b14806115c557506001600160e01b03198216635b5e139f60e01b145b8061046b57506301ffc9a760e01b6001600160e01b031983161461046b565b6000806115f083610a5a565b9050806001600160a01b0316846001600160a01b0316148061163757506001600160a01b038082166000908152606a602090815260408083209388168352929052205460ff165b8061158c5750836001600160a01b031661165084610503565b6001600160a01b031614949350505050565b826001600160a01b031661167582610a5a565b6001600160a01b0316146116d95760405162461bcd60e51b815260206004820152602560248201527f4552433732313a207472616e736665722066726f6d20696e636f72726563742060448201526437bbb732b960d91b606482015260840161059f565b6001600160a01b03821661173b5760405162461bcd60e51b8152602060048201526024808201527f4552433732313a207472616e7366657220746f20746865207a65726f206164646044820152637265737360e01b606482015260840161059f565b6117468383836118a4565b611751600082611256565b6001600160a01b038316600090815260686020526040812080546001929061177a9084906122b4565b90915550506001600160a01b03821660009081526068602052604081208054600192906117a890849061229c565b909155505060008181526067602052604080822080546001600160a01b0319166001600160a01b0386811691821790925591518493918716917fddf252ad1be2c89b69c2b068fc378daa952ba7f163c4a11628f55a4df523b3ef91a4505050565b610a2c8282604051806020016040528060008152506118af565b600054610100900460ff1661184a5760405162461bcd60e51b815260040161059f90612389565b815161185d906065906020850190611d76565b508051610640906066906020840190611d76565b61187c848484611662565b611888848484846118e2565b6107205760405162461bcd60e51b815260040161059f90612412565b6106408383836119e0565b6118b98383611a98565b6118c660008484846118e2565b6106405760405162461bcd60e51b815260040161059f90612412565b60006001600160a01b0384163b156119d557604051630a85bd0160e11b81526001600160a01b0385169063150b7a0290611926903390899088908890600401612464565b6020604051808303816000875af1925050508015611961575060408051601f3d908101601f1916820190925261195e918101906124a1565b60015b6119bb573d80801561198f576040519150601f19603f3d011682016040523d82523d6000602084013e611994565b606091505b5080516119b35760405162461bcd60e51b815260040161059f90612412565b805181602001fd5b6001600160e01b031916630a85bd0160e11b14905061158c565b506001949350505050565b6001600160a01b038316611a3b57611a3681609980546000838152609a60205260408120829055600182018355919091527f72a152ddfb8e864297c917af52ea6c1c68aead0fee1a62673fcc7e0c94979d000155565b611a5e565b816001600160a01b0316836001600160a01b031614611a5e57611a5e8382611be6565b6001600160a01b038216611a755761064081611c83565b826001600160a01b0316826001600160a01b031614610640576106408282611d32565b6001600160a01b038216611aee5760405162461bcd60e51b815260206004820181905260248201527f4552433732313a206d696e7420746f20746865207a65726f2061646472657373604482015260640161059f565b6000818152606760205260409020546001600160a01b031615611b535760405162461bcd60e51b815260206004820152601c60248201527f4552433732313a20746f6b656e20616c7265616479206d696e74656400000000604482015260640161059f565b611b5f600083836118a4565b6001600160a01b0382166000908152606860205260408120805460019290611b8890849061229c565b909155505060008181526067602052604080822080546001600160a01b0319166001600160a01b03861690811790915590518392907fddf252ad1be2c89b69c2b068fc378daa952ba7f163c4a11628f55a4df523b3ef908290a45050565b60006001611bf384610aba565b611bfd91906122b4565b600083815260986020526040902054909150808214611c50576001600160a01b03841660009081526097602090815260408083208584528252808320548484528184208190558352609890915290208190555b5060009182526098602090815260408084208490556001600160a01b039094168352609781528383209183525290812055565b609954600090611c95906001906122b4565b6000838152609a602052604081205460998054939450909284908110611cbd57611cbd612270565b906000526020600020015490508060998381548110611cde57611cde612270565b6000918252602080832090910192909255828152609a90915260408082208490558582528120556099805480611d1657611d166122cb565b6001900381819060005260206000200160009055905550505050565b6000611d3d83610aba565b6001600160a01b039093166000908152609760209081526040808320868452825280832085905593825260989052919091209190915550565b828054611d82906121b5565b90600052602060002090601f016020900481019282611da45760008555611dea565b82601f10611dbd57805160ff1916838001178555611dea565b82800160010185558215611dea579182015b82811115611dea578251825591602001919060010190611dcf565b50611df6929150611dfa565b5090565b5b80821115611df65760008155600101611dfb565b6001600160e01b03198116811461125357600080fd5b600060208284031215611e3757600080fd5b813561111c81611e0f565b60005b83811015611e5d578181015183820152602001611e45565b838111156107205750506000910152565b60008151808452611e86816020860160208601611e42565b601f01601f19169290920160200192915050565b60208152600061111c6020830184611e6e565b600060208284031215611ebf57600080fd5b5035919050565b80356001600160a01b0381168114611edd57600080fd5b919050565b60008060408385031215611ef557600080fd5b611efe83611ec6565b946020939093013593505050565b600080600060608486031215611f2157600080fd5b611f2a84611ec6565b9250611f3860208501611ec6565b9150604084013590509250925092565b600060208284031215611f5a57600080fd5b61111c82611ec6565b80358015158114611edd57600080fd5b600060208284031215611f8557600080fd5b61111c82611f63565b634e487b7160e01b600052604160045260246000fd5b600067ffffffffffffffff80841115611fbf57611fbf611f8e565b604051601f8501601f19908116603f01168101908282118183101715611fe757611fe7611f8e565b8160405280935085815286868601111561200057600080fd5b858560208301376000602087830101525050509392505050565b600082601f83011261202b57600080fd5b61111c83833560208501611fa4565b60006020828403121561204c57600080fd5b813567ffffffffffffffff81111561206357600080fd5b61158c8482850161201a565b6000806040838503121561208257600080fd5b61208b83611ec6565b915061209960208401611f63565b90509250929050565b6000806000606084860312156120b757600080fd5b833567ffffffffffffffff808211156120cf57600080fd5b6120db8783880161201a565b945060208601359150808211156120f157600080fd5b506120fe8682870161201a565b925050604084013590509250925092565b6000806000806080858703121561212557600080fd5b61212e85611ec6565b935061213c60208601611ec6565b925060408501359150606085013567ffffffffffffffff81111561215f57600080fd5b8501601f8101871361217057600080fd5b61217f87823560208401611fa4565b91505092959194509250565b6000806040838503121561219e57600080fd5b6121a783611ec6565b915061209960208401611ec6565b600181811c908216806121c957607f821691505b602082108114156121ea57634e487b7160e01b600052602260045260246000fd5b50919050565b6020808252601f908201527f436f6e74726163744572726f723a205452414e534645525f424c4f434b454400604082015260600190565b60208082526029908201527f436f6e74726163744572726f723a2043414c4c45525f4d5553545f42455f4d4160408201526829aa22a920a226a4a760b91b606082015260800190565b634e487b7160e01b600052603260045260246000fd5b634e487b7160e01b600052601160045260246000fd5b600082198211156122af576122af612286565b500190565b6000828210156122c6576122c6612286565b500390565b634e487b7160e01b600052603160045260246000fd5b600083516122f3818460208801611e42565b835190830190612307818360208801611e42565b64173539b7b760d91b9101908152600501949350505050565b600060001982141561233457612334612286565b5060010190565b6020808252602e908201527f4552433732313a2063616c6c6572206973206e6f7420746f6b656e206f776e6560408201526d1c881b9bdc88185c1c1c9bdd995960921b606082015260800190565b6020808252602b908201527f496e697469616c697a61626c653a20636f6e7472616374206973206e6f74206960408201526a6e697469616c697a696e6760a81b606082015260800190565b634e487b7160e01b600052601260045260246000fd5b6000826123f9576123f96123d4565b500490565b60008261240d5761240d6123d4565b500690565b60208082526032908201527f4552433732313a207472616e7366657220746f206e6f6e20455243373231526560408201527131b2b4bb32b91034b6b83632b6b2b73a32b960711b606082015260800190565b6001600160a01b038581168252841660208201526040810183905260806060820181905260009061249790830184611e6e565b9695505050505050565b6000602082840312156124b357600080fd5b815161111c81611e0f56fea2646970667358221220692c7a4d2d002c941b40d82ed19f85a07880463374b84c53e4bec5c58c8afff964736f6c634300080b0033",
  "devdoc": {
    "kind": "dev",
    "methods": {
      "adminMint(address,uint256)": {
        "details": "preMintChecker  ,    (,    SingleMint  .)",
        "params": {
          "mintNum": ": receive  ",
          "receiver": ":  NFT  "
        }
      },
      "approve(address,uint256)": {
        "details": "See {IERC721-approve}."
      },
      "balanceOf(address)": {
        "details": "See {IERC721-balanceOf}."
      },
      "getApproved(uint256)": {
        "details": "See {IERC721-getApproved}."
      },
      "isApprovedForAll(address,address)": {
        "details": "See {IERC721-isApprovedForAll}."
      },
      "name()": {
        "details": "See {IERC721Metadata-name}."
      },
      "ownerOf(uint256)": {
        "details": "See {IERC721-ownerOf}."
      },
      "safeTransferFrom(address,address,uint256)": {
        "details": "See {IERC721-safeTransferFrom}."
      },
      "safeTransferFrom(address,address,uint256,bytes)": {
        "details": "See {IERC721-safeTransferFrom}."
      },
      "setApprovalForAll(address,bool)": {
        "details": "See {IERC721-setApprovalForAll}."
      },
      "singleMint(address)": {
        "details": "singleMint  Minting ,        whiteList   .",
        "params": {
          "receiver": ":  NFT  "
        }
      },
      "supportsInterface(bytes4)": {
        "details": "See {IERC165-supportsInterface}."
      },
      "symbol()": {
        "details": "See {IERC721Metadata-symbol}."
      },
      "tokenByIndex(uint256)": {
        "details": "See {IERC721Enumerable-tokenByIndex}."
      },
      "tokenOfOwnerByIndex(address,uint256)": {
        "details": "See {IERC721Enumerable-tokenOfOwnerByIndex}."
      },
      "tokenURI(uint256)": {
        "details": "See {IERC721Metadata-tokenURI}."
      },
      "totalSupply()": {
        "details": "See {IERC721Enumerable-totalSupply}."
      },
      "transferFrom(address,address,uint256)": {
        "details": "See {IERC721-transferFrom}."
      }
    },
    "version": 1
  },
  "userdoc": {
    "kind": "user",
    "methods": {
      "adminMint(address,uint256)": {
        "notice": "   "
      },
      "singleMint(address)": {
        "notice": "   "
      }
    },
    "version": 1
  },
  "storageLayout": {
    "storage": [
      {
        "astId": 6,
        "contract": "src/MyLittleEagle.sol:MyLittleEagle",
        "label": "_initialized",
        "offset": 0,
        "slot": "0",
        "type": "t_uint8"
      },
      {
        "astId": 9,
        "contract": "src/MyLittleEagle.sol:MyLittleEagle",
        "label": "_initializing",
        "offset": 1,
        "slot": "0",
        "type": "t_bool"
      },
      {
        "astId": 1876,
        "contract": "src/MyLittleEagle.sol:MyLittleEagle",
        "label": "__gap",
        "offset": 0,
        "slot": "1",
        "type": "t_array(t_uint256)50_storage"
      },
      {
        "astId": 2146,
        "contract": "src/MyLittleEagle.sol:MyLittleEagle",
        "label": "__gap",
        "offset": 0,
        "slot": "51",
        "type": "t_array(t_uint256)50_storage"
      },
      {
        "astId": 179,
        "contract": "src/MyLittleEagle.sol:MyLittleEagle",
        "label": "_name",
        "offset": 0,
        "slot": "101",
        "type": "t_string_storage"
      },
      {
        "astId": 181,
        "contract": "src/MyLittleEagle.sol:MyLittleEagle",
        "label": "_symbol",
        "offset": 0,
        "slot": "102",
        "type": "t_string_storage"
      },
      {
        "astId": 185,
        "contract": "src/MyLittleEagle.sol:MyLittleEagle",
        "label": "_owners",
        "offset": 0,
        "slot": "103",
        "type": "t_mapping(t_uint256,t_address)"
      },
      {
        "astId": 189,
        "contract": "src/MyLittleEagle.sol:MyLittleEagle",
        "label": "_balances",
        "offset": 0,
        "slot": "104",
        "type": "t_mapping(t_address,t_uint256)"
      },
      {
        "astId": 193,
        "contract": "src/MyLittleEagle.sol:MyLittleEagle",
        "label": "_tokenApprovals",
        "offset": 0,
        "slot": "105",
        "type": "t_mapping(t_uint256,t_address)"
      },
      {
        "astId": 199,
        "contract": "src/MyLittleEagle.sol:MyLittleEagle",
        "label": "_operatorApprovals",
        "offset": 0,
        "slot": "106",
        "type": "t_mapping(t_address,t_mapping(t_address,t_bool))"
      },
      {
        "astId": 1041,
        "contract": "src/MyLittleEagle.sol:MyLittleEagle",
        "label": "__gap",
        "offset": 0,
        "slot": "107",
        "type": "t_array(t_uint256)44_storage"
      },
      {
        "astId": 1206,
        "contract": "src/MyLittleEagle.sol:MyLittleEagle",
        "label": "_ownedTokens",
        "offset": 0,
        "slot": "151",
        "type": "t_mapping(t_address,t_mapping(t_uint256,t_uint256))"
      },
      {
        "astId": 1210,
        "contract": "src/MyLittleEagle.sol:MyLittleEagle",
        "label": "_ownedTokensIndex",
        "offset": 0,
        "slot": "152",
        "type": "t_mapping(t_uint256,t_uint256)"
      },
      {
        "astId": 1213,
        "contract": "src/MyLittleEagle.sol:MyLittleEagle",
        "label": "_allTokens",
        "offset": 0,
        "slot": "153",
        "type": "t_array(t_uint256)dyn_storage"
      },
      {
        "astId": 1217,
        "contract": "src/MyLittleEagle.sol:MyLittleEagle",
        "label": "_allTokensIndex",
        "offset": 0,
        "slot": "154",
        "type": "t_mapping(t_uint256,t_uint256)"
      },
      {
        "astId": 1533,
        "contract": "src/MyLittleEagle.sol:MyLittleEagle",
        "label": "__gap",
        "offset": 0,
        "slot": "155",
        "type": "t_array(t_uint256)46_storage"
      },
      {
        "astId": 2250,
        "contract": "src/MyLittleEagle.sol:MyLittleEagle",
        "label": "whiteList",
        "offset": 0,
        "slot": "201",
        "type": "t_array(t_address)dyn_storage"
      },
      {
        "astId": 2254,
        "contract": "src/MyLittleEagle.sol:MyLittleEagle",
        "label": "isWhiteListed",
        "offset": 0,
        "slot": "202",
        "type": "t_mapping(t_address,t_bool)"
      },
      {
        "astId": 2256,
        "contract": "src/MyLittleEagle.sol:MyLittleEagle",
        "label": "isTransferBlocked",
        "offset": 0,
        "slot": "203",
        "type": "t_bool"
      },
      {
        "astId": 2258,
        "contract": "src/MyLittleEagle.sol:MyLittleEagle",
        "label": "masterAdmin",
        "offset": 1,
        "slot": "203",
        "type": "t_address"
      },
      {
        "astId": 2260,
        "contract": "src/MyLittleEagle.sol:MyLittleEagle",
        "label": "assetLimit",
        "offset": 0,
        "slot": "204",
        "type": "t_uint256"
      },
      {
        "astId": 2262,
        "contract": "src/MyLittleEagle.sol:MyLittleEagle",
        "label": "baseURIextended",
        "offset": 0,
        "slot": "205",
        "type": "t_string_storage"
      },
      {
        "astId": 2264,
        "contract": "src/MyLittleEagle.sol:MyLittleEagle",
        "label": "uriSet",
        "offset": 0,
        "slot": "206",
        "type": "t_bool"
      },
      {
        "astId": 2267,
        "contract": "src/MyLittleEagle.sol:MyLittleEagle",
        "label": "_tokenIdCounter",
        "offset": 0,
        "slot": "207",
        "type": "t_struct(Counter)2165_storage"
      }
    ],
    "types": {
      "t_address": {
        "encoding": "inplace",
        "label": "address",
        "numberOfBytes": "20"
      },
      "t_array(t_address)dyn_storage": {
        "base": "t_address",
        "encoding": "dynamic_array",
        "label": "address[]",
        "numberOfBytes": "32"
      },
      "t_array(t_uint256)44_storage": {
        "base": "t_uint256",
        "encoding": "inplace",
        "label": "uint256[44]",
        "numberOfBytes": "1408"
      },
      "t_array(t_uint256)46_storage": {
        "base": "t_uint256",
        "encoding": "inplace",
        "label": "uint256[46]",
        "numberOfBytes": "1472"
      },
      "t_array(t_uint256)50_storage": {
        "base": "t_uint256",
        "encoding": "inplace",
        "label": "uint256[50]",
        "numberOfBytes": "1600"
      },
      "t_array(t_uint256)dyn_storage": {
        "base": "t_uint256",
        "encoding": "dynamic_array",
        "label": "uint256[]",
        "numberOfBytes": "32"
      },
      "t_bool": {
        "encoding": "inplace",
        "label": "bool",
        "numberOfBytes": "1"
      },
      "t_mapping(t_address,t_bool)": {
        "encoding": "mapping",
        "key": "t_address",
        "label": "mapping(address => bool)",
        "numberOfBytes": "32",
        "value": "t_bool"
      },
      "t_mapping(t_address,t_mapping(t_address,t_bool))": {
        "encoding": "mapping",
        "key": "t_address",
        "label": "mapping(address => mapping(address => bool))",
        "numberOfBytes": "32",
        "value": "t_mapping(t_address,t_bool)"
      },
      "t_mapping(t_address,t_mapping(t_uint256,t_uint256))": {
        "encoding": "mapping",
        "key": "t_address",
        "label": "mapping(address => mapping(uint256 => uint256))",
        "numberOfBytes": "32",
        "value": "t_mapping(t_uint256,t_uint256)"
      },
      "t_mapping(t_address,t_uint256)": {
        "encoding": "mapping",
        "key": "t_address",
        "label": "mapping(address => uint256)",
        "numberOfBytes": "32",
        "value": "t_uint256"
      },
      "t_mapping(t_uint256,t_address)": {
        "encoding": "mapping",
        "key": "t_uint256",
        "label": "mapping(uint256 => address)",
        "numberOfBytes": "32",
        "value": "t_address"
      },
      "t_mapping(t_uint256,t_uint256)": {
        "encoding": "mapping",
        "key": "t_uint256",
        "label": "mapping(uint256 => uint256)",
        "numberOfBytes": "32",
        "value": "t_uint256"
      },
      "t_string_storage": {
        "encoding": "bytes",
        "label": "string",
        "numberOfBytes": "32"
      },
      "t_struct(Counter)2165_storage": {
        "encoding": "inplace",
        "label": "struct Counters.Counter",
        "members": [
          {
            "astId": 2164,
            "contract": "src/MyLittleEagle.sol:MyLittleEagle",
            "label": "_value",
            "offset": 0,
            "slot": "0",
            "type": "t_uint256"
          }
        ],
        "numberOfBytes": "32"
      },
      "t_uint256": {
        "encoding": "inplace",
        "label": "uint256",
        "numberOfBytes": "32"
      },
      "t_uint8": {
        "encoding": "inplace",
        "label": "uint8",
        "numberOfBytes": "1"
      }
    }
  }
}